:02000004080AE8
:1000000000000A0880590A080000060006000501E1
:080010000402290500000000B4
:04001800A0510A08E1
:1000200009480A4908B5884205D0094A824202D0E7
:10003000121A02F041FF0748074A0021121A02F083
:1000400046FF064808BD00BF0000002044580A08CB
:100050001401002014010020340700203407002080
:1000600070B501F04DFD074B074C1E46E41AA4087D
:100070000025A54204D056F8253098470135F8E709
:1000800070BD00BF04580A0838580A0800F0E0B8EC
:1000900008B500F0F7F9BDE8084001F0F3BC00F046
:1000A000C5BC00F0CBBC0078B0FA80F040097047C6
:1000B00001230370704700002DE9F041244C254EC8
:1000C00023682546336000F0B3FA2060032001F076
:1000D00091FD214B071E14BF012200221A701F4CF4
:1000E0001F4BB046A0681F4E196807D002F05CFC99
:1000F000A0602069316802F057FC06E002F052FC73
:10010000A0602069316802F04DFC20612B68D8F8AE
:1001100000001B1A1448B3FBF0F002F081F80B4604
:10012000024609A1D1E9000102F01AFA02F0E6FB49
:100130000E4B18601FB11A6802F100421A600C4B96
:1001400001221A70BDE8F0813333333333338340F7
:1001500020010020400100201C0100202801002077
:10016000100000204801002040420F004401002000
:100170002401002013B5154901F0F1F918B301F07D
:100180008EFA134C63682060A360E368236101F07A
:1001900045FD14222146002000F072FAA06802F00A
:1001A00061F80C4ACDE9000110210B4800F05EFC1B
:1001B000206902F057F8094ACDE9000110210848EA
:1001C00000F054FC012002B010BD00BF0C530A081F
:1001D00028010020B4510A0814000020BE510A086A
:1001E0000000002010B500F02BFA064C2368C01A5E
:1001F000B0F57A7F04D300F023FA2060012010BD0F
:10020000002010BD1801002008B5FFF7EBFF18B162
:10021000BDE80840FFF7E6BF00F090FBF5E738B512
:10022000046805467CB16368013B63605BB9236881
:1002300020469B689847A368013BA3601BB92368CD
:100240002046DB689847284638BD000000000000C3
:100250001FB50021022001F0A3FC0021032001F0C2
:100260009FFC0121072001F09BFC0021072001F0E9
:10027000A8FC454A4549464800F08EFC454A464997
:10028000434800F089FC454A4549414800F084FC58
:10029000002304224349444800F040FB0023042289
:1002A0004249434800F03AFB0023022200934149AF
:1002B0004FF0FF33104600F05DFF00F047FB0028D1
:1002C0005BD03D4C00F042FB01F0A8FC142221461B
:1002D000002000F0CDF901F0E2F92368C01AB0F572
:1002E000967F0DD901F0DBF963682060A360E368B5
:1002F000236101F093FC14222146002000F0C0F994
:10030000606801F0AFFF00222C4B02F029F91CA31A
:10031000D3E9002301F0FAFF0022294B02F020F973
:1003200002460B460020274902F01AF902F0E6FACD
:10033000254B1860A06801F095FF244ACDE9000123
:100340001021184800F092FB206901F08BFF204A31
:10035000CDE900011021154800F088FB1D4B1E4A15
:100360001B781E498DF8003002A83C2300F03CFDAC
:1003700003A8FFF754FF04B010BD00F0DFFA9CE7BC
:100380000000000000E3B640C7510A0801050A0852
:100390006D0B0A08D4510A0881050A08DF510A08C2
:1003A00075010A0814000020CB510A080000002043
:1003B000D8510A08B9000A082801002000408F40DF
:1003C000000059400000F03F48010020B4510A08E5
:1003D000BE510A083C010020EA510A0802520A08EC
:1003E0002DE9F047A4B001F05AF9214B1C689E6832
:1003F000041B1F691F4B2046D3F8008001F026F92B
:100400000546204601F00AF98146204601F00EF922
:100410008246204601F012F9013D09904046CDF890
:1004200020A0CDF81C90069501F01CFFCDE9040139
:10043000384601F017FFCDE90201304601F012FF06
:100440000D4ACDE9000160210CA800F00FFB0B4B19
:100450000CAA1B780A498DF800300AA83C2300F04A
:10046000C3FC0BA8FFF7DBFE24B0BDE8F08700BF9C
:1004700028010020440100200A520A083C01002003
:1004800052520A0837B5184B1A7852B30025012189
:1004900007201D70154C01F094FB642000F0FEFA5B
:1004A0002946072001F08DFBFFF79AFF01F0B6FB0C
:1004B00014222146284600F0E3F8A06801F0D2FE9D
:1004C0000B4ACDE9000110210A4800F0CFFA20695B
:1004D00001F0C8FE084ACDE900011021074800F0EC
:1004E000C5FA03B030BD00BF240100202801002060
:1004F000B4510A0814000020BE510A080000002070
:1005000030B587B003A9006803F07EFB00210546E3
:1005100002F0A0FB18BB1449284602F0B9FBF0B961
:10052000124B28465D6001F09DFE114ACDE90001A5
:100530001021104800F09AFA00F008FA88B1FFF78D
:1005400063FE0D4B04A81B780A4A8DF800300B4956
:100550003C2300F049FC05A8FFF761FE01E0002004
:1005600000E0012007B030BD0080BB45280100201D
:10057000B4510A08140000203C010020CB510A08A5
:1005800030B587B003A9006803F03EFB00210546A3
:1005900002F060FB18BB1449284602F079FBF0B961
:1005A000124B2846DD6001F05DFE114ACDE90001E5
:1005B0001021104800F05AFA00F0C8F988B1FFF78E
:1005C00023FE0D4B04A81B780A4A8DF800300B4916
:1005D0003C2300F009FC05A8FFF721FE01E0002004
:1005E00000E0012007B030BD0000C8422801002013
:1005F000BE510A08000000203C010020D8510A0822
:10060000024B01221A7000F04BB800BF3C010020E1
:1006100008B5024B1B681B6B019308BDD00106088F
:1006200008B5024B1B685B68019308BD9C01060876
:1006300008B5024B1B681B69019308BD9C010608A5
:1006400008B5024B1B685B69019308BD9C01060855
:1006500008B5024B1B68DB69019308BD9C010608C5
:1006600008B5024B1B689B6A019308BD9C010608F4
:1006700008B5024B1B685B6C019308BD9C01060822
:1006800008B5024B1B689B6C019308BD9C010608D2
:1006900008B5024B1B689B6D019308BD9C010608C1
:1006A00008B5024B1B681B68019308BDB001060822
:1006B00008B5024B1B689B68019308BDB001060892
:1006C00008B5024B1B68DB68019308BDB001060842
:1006D00008B5024B1B681B69019308BDB0010608F1
:1006E00008B5024B1B685B69019308BDB0010608A1
:1006F00008B5024B1B689B69019308BDB001060851
:1007000008B5024B1B68DB69019308BDB001060800
:1007100008B5024B1B681B6E019308BDAC010608AF
:1007200008B5024B1B685B6E019308BDAC0106085F
:1007300008B5024B1B689B6E019308BDAC0106080F
:1007400008B5024B1B68DB6E019308BDAC010608BF
:1007500008B5024B1B681B6F019308BDAC0106086E
:1007600008B5024B1B685B6F019308BDAC0106081E
:1007700008B5034B1B68D3F88030019308BD000017
:10078000AC01060808B5024B1B68DB69019308BD84
:10079000B401060808B5024B1B681B6A019308BD2B
:1007A000B401060808B5024B1B689B69019308BD9C
:1007B000C401060808B5024B1B685B6A019308BDBB
:1007C000C401060808B5024B1B689B6A019308BD6B
:1007D000C401060808B5024B1B68DB6A019308BD1B
:1007E000C401060808B5024B1B681B6B019308BDCA
:1007F000C401060808B5024B1B685B6B019308BD7A
:10080000C401060808B5024B1B689B6B019308BD29
:10081000C401060808B5024B1B681B6C019308BD98
:10082000C401060808B5024B1B681B68019308BD8C
:10083000D801060808B5024B1B681B69019308BD67
:10084000D801060808B5024B1B685B69019308BD17
:10085000D801060808B5024B1B689B69019308BDC7
:10086000D801060808B5024B1B68DB69019308BD77
:10087000D801060808B5024B1B681B6A019308BD26
:10088000D801060808B5024B1B689B6C019308BD94
:10089000C001060808B5024B1B681B68019308BD20
:1008A000A401060808B5024B1B685B68019308BDEC
:1008B000A401060808B5024B1B685B69019308BDDB
:1008C000A401060808B5024B1B68DB6C019308BD48
:1008D000A401060808B5024B1B685B6D019308BDB7
:1008E000A401060808B5024B1B689B6D019308BD67
:1008F000A401060808B5034B1B68D3F89030019398
:1009000008BD0000A401060808B5034B1B68D3F816
:100910009C30019308BD0000A401060808B5024BF5
:100920001B681B68019308BDCC01060808B5024B83
:100930001B685B68019308BDCC01060808B5024B33
:100940001B689B68019308BDCC01060808B5024BE3
:100950001B685B69019308BDCC01060808B5024B12
:100960001B681B6A019308BDCC01060808B5024B41
:100970001B681B6B019308BDCC01060808B5024B30
:100980001B68DB6B019308BDCC01060808B5024B60
:100990001B685B68019308BDC801060808B5024BD7
:1009A0001B689B68019308BDC801060808B5024B87
:1009B0001B68DB68019308BDC801060808B5024B37
:1009C0001B681B69019308BDC801060808B5024BE6
:1009D0001B685B69019308BDC801060808B5024B96
:1009E0001B689B69019308BDC801060808B5024B46
:1009F0001B68DB69019308BDC801060808B5024BF6
:100A00001B681B6A019308BDC801060808B5024BA4
:100A10001B681B6B019308BDC801060808B5024B93
:100A20001B685B6B019308BDC801060808B5024B43
:100A30001B681B68019308BDA001060808B5024B9E
:100A40001B685B68019308BDA001060808B5024B4E
:100A50001B689B68019308BDA001060808B5024BFE
:100A60001B689B69019308BDA001060808B5024BED
:100A70001B68DB69019308BDA001060808B5024B9D
:100A80001B68DB6A019308BDA001060808B5024B8C
:100A90001B681B6B019308BDA00106080021FFF72E
:100AA00009BF10B5836804460BB901F02CF9C3687F
:100AB0009847A3681BB10322214620469847204649
:100AC000BDE81040102101F01CB9704700207047AC
:100AD00010B50446102101F014F9204610BD08B5E8
:100AE00008B1FFF7F5FF08BD10B58368044613B1E0
:100AF000032201469847204610BD002202604FF6AF
:100B00009C72828010B5B1F9044084808A800268AA
:100B10000C6804600A6010BD10B504460068FFF759
:100B20008DFF204610BD38B5C468F4B12378022B80
:100B300003D104F10C00FFF7EFFF656835B12846DB
:100B4000FFF7D2FF1021284601F0DBF8A56835B188
:100B50002846FFF7C9FF1021284601F0D2F82046A9
:100B6000BDE83840142101F0CCB838BD10B588B0CC
:100B70000446684600F0C6FC694604A800F0E4FCA0
:100B800004A8A047044604A800F075FC684600F0DD
:100B900072FC204608B010BDF0B507460E4615465B
:100BA00085B0102422460021684602F090F9002208
:100BB00069461046ADF80040029703960195FFF78D
:100BC000B5FE05B0F0BD13B5044691E8050000235D
:100BD0004B600B602060626001A801930093FFF7F7
:100BE0001EFB204602B010BD0B68036013B15A68AB
:100BF00001325A607047F7B50C4606460F4654F866
:100C0000043B02AD45F8083D214601A8FFF7ECFF83
:100C100029463046FFF7D7FF01A8FFF700FB204623
:100C2000FFF7FDFA3846082101F06BF8304603B0B3
:100C3000F0BD13B50B46044603C88DE8030093E8E6
:100C4000030084E803009DE8030083E8030002B08A
:100C500010BD000038B500230446036010200D4687
:100C6000FFF71DFA28B1012343608360024BC56082
:100C700003602060204638BD64520A08826810B5BF
:100C80000AB901F040F8C368BDE81040184708B53C
:100C9000006800F11001FFF7F1FF08BD826810B590
:100CA0000AB901F030F8C368BDE81040184708B52C
:100CB000006800F11001FFF7F1FF08BD38B500230F
:100CC00083608B6804460D462BB102229847EB687F
:100CD000E360AB68A360204638BD0000F0B589B082
:100CE00004686846FFF709FF4FF0020200238DF801
:100CF0000830D4E84F3F002B03D1C4E8412F00292E
:100D0000F7D102D08DF8083063E014F10C0503D060
:100D100069462846FFF7F1FEBFF35F8F012363703A
:100D2000BFF35F8F04F10803002053E8006F43E82E
:100D30000002002AF9D1BFF35F8F002E49D0FFF7E0
:100D4000C1FD20B129463046FFF798FF3AE0314611
:100D500002A8FFF7B3FFE068B4F9105008B102F041
:100D6000F9F806901020ADF81C50FFF798F90546E9
:100D7000E8B1002787601820FFF791F9044688B191
:100D80000146876002A8FFF754FF049BA268A36096
:100D9000059B0492E26806A9E36004F11000059245
:100DA000FFF7ABFE0D4B2C60EB600D4BAB6006A864
:100DB000FFF7B2FE02A8FFF797FE00222946094876
:100DC000FFF788FD3046FFF78FFE1021304600F018
:100DD00098FF6846FFF7A0FE09B0F0BD8F0C0A0827
:100DE000050F0A08A30A0A082DE9F04F8BB0064642
:100DF0000F46904699469DF850A0FFF7A7FD07AD16
:100E0000834630BB4FF62E73059005A92846ADF8F2
:100E10001830FFF772FE1420FFF741F9044658B16D
:100E20000223037001234370C0F804B0C0F808B077
:100E300029460C30FFF761FE3046214640F8044B4E
:100E4000FFF708FF2846FFF767FE05A8FFF764FED7
:100E500052E000240C2314206C60AC600793FFF771
:100E60001EF9014618B1047044704460846004A8FF
:100E70000391FFF7EFFE224B08200893FFF70FF9CD
:100E8000044628B1039B04A940F8043BFFF7ACFEDD
:100E900000955FFA8AF34A46414638460994FFF7BF
:100EA0005DFD20B9039B5B7803F0FF0283B1039BD8
:100EB00004A906A80593FFF797FE05A93046FFF79A
:100EC00082FE06A8FFF7ABF904A8FFF7A8F913E024
:100ED0004FF69C7305A903A80592ADF81830FFF7EB
:100EE000FDFE05A8FFF718FE05A80999FFF783FE88
:100EF00006A8FFF794F9DAE730460BB0BDE8F08FAB
:100F000075100A08022AF8B5044606D0032A17D03D
:100F1000012A22D10B6803601FE018200E68FFF73A
:100F2000BEF8054650B13146FFF7C8FE3069B6F944
:100F3000147008B102F00EF82861AF8225600CE051
:100F4000046854B104F11000FFF7E6FD2046FFF7F6
:100F5000CBFD1821204600F0D4FE0020F8BD38B5A6
:100F6000002383608B6804460D462BB1022298470C
:100F7000EB68E360AB68A360204638BD022A70B519
:100F8000044606D0032A11D0012A18D10B68036049
:100F900015E014200E68FFF782F8054620B13146AF
:100FA000FFF7DDFF337C2B74256008E0046834B163
:100FB0002046FFF799FD1421204600F0A2FE0020F4
:100FC00070BD0000F0B50C46BFF35F8F87B0002303
:100FD00050E8006F40E80032002AF9D1BFF35F8F7C
:100FE000002E3FD01846FFF76DFC074620B1214682
:100FF0003046FFF753FE2EE0314601A8FFF7AFFF62
:10100000237810208DF81430FFF749F80546D0B149
:1010100087601420FFF743F8044678B187600146E3
:1010200001A8FFF706FE039BA268A360049B03923E
:10103000E268E3609DF81430049223740A4B2C603C
:10104000EB600A4BAB6001A8FFF74EFD002229467A
:101050000748FFF73FFC3046FFF746FD10213046BA
:1010600000F04FFE07B0F0BDAF0C0A087D0F0A0874
:10107000A30A0A0830B5044685B00D4668461146F5
:10108000FFF7B9FD7CB124B228460DB101F062FF33
:10109000029002A96846ADF80C40FFF71FFE02A8B7
:1010A000FFF73AFD1DE04FF0010200988DF808406F
:1010B000D0E84F3FA34203D1C0E8412F0029F7D128
:1010C00002D08DF808300CE010F10C014FF0010354
:1010D00018BF0373BFF35F8F043000F8033CFFF7C2
:1010E00071FF01A8FFF79BF805B030BD7047F8B558
:1010F000064615460C468F18BC4206D0336814F8D5
:10110000011B9B6830469847F6E72846F8BD002249
:10111000007CFFF7FDBA0021007CFFF701BB002136
:10112000007CFFF705BB0021007CFFF709BB002115
:10113000007CFFF70DBB10B50446142100F0E1FD63
:10114000204610BD10B5044608464FF47A73A360DC
:10115000044B0021207461602360FFF709FB2046E7
:1011600010BD00BF80520A080021007CFFF7F8BACA
:1011700000470000F0B51C4685B005460E461746F0
:10118000FFF7BEFA002084424FF0040303908DF86D
:101190000C30B4BF03469DF828302846A4BF8DF814
:1011A0000E3003AB009332463B460449A8BF8DF88E
:1011B0000D40FFF79DFA012005B0F0BD71110A083E
:1011C000704710B50446182100F09BFD204610BD65
:1011D000F8B50F4600F10806051D002416F8011D9C
:1011E0000A22384600F011F9AE42044407D0002C20
:1011F000F4D02E21384600F0DBF80444EEE7204618
:10120000F8BD000010B50446044B112240F8043B21
:10121000002101F05CFE204610BD00BFA8520A0864
:101220000346074A10B543F8042B01F1100251F8A8
:10123000044B914243F8044BF9D10A781A7010BD5F
:10124000A8520A08024A41600260042202757047EF
:10125000A8520A0810B59DF8084044EA032343EA5F
:10126000024242EA016104234160037510BD00009F
:1012700037B5044D05609DF818500095FFF7EAFF5B
:1012800003B030BDA8520A08014A024B1A607047E9
:101290006D530A084C01002000231A464068FFF7EE
:1012A00075BB002202214068FFF780BB0022114677
:1012B0004068FFF773BB002211464068FFF77EBB12
:1012C00000231A4619464068FFF780BB00231A46E0
:1012D00019464068FFF782BB002281F00101406897
:1012E000FFF784BB00224068FFF790BB0022114645
:1012F0004068FFF793BB002211464068FFF77EBBB2
:1013000070B516468EB0044608A8FFF77BFF112281
:10131000002103A801F0DBFD304601F036FE002578
:101320000A4B009581B25B6803AA3046FFF7AAFA20
:1013300020B129462046FFF785FF03E003A9204698
:10134000FFF76EFF20460EB070BD00BF0006002004
:10135000024B034A1A6000225A6070475001002075
:10136000A0530A08F8B506460D468F180024BD4262
:101370000CD0336815F8011B9B683046984700284D
:1013800001DB0444F3E7002C08BF04462046F8BD07
:1013900070B505460C46084649B101F0F6FD2B68CC
:1013A000024621462846BDE87040DB68184770BDFC
:1013B00003689B681847012A98BF0A2230B50B467C
:1013C0008BB000218DF824100DF12304B3FBF2F54E
:1013D00005FB1233DBB2092B94BF30333733DBB25A
:1013E000214604F801392B46002DEFD1FFF7D0FF3D
:1013F0000BB030BD10B422B90368C9B29B6810BCF1
:101400001847D2B210BCFFF7D6BFFFF7F3BF10B535
:101410000446FFF769FB204610BD00000348002387
:101420008360034A034900F067BC00BF58010020F5
:10143000140100200F140A08704710B5044610214B
:1014400000F05FFC204610BD70B504460E46074B09
:101450000025036040F80C5FFFF7DAF8304626718C
:10146000FFF790F9A560204670BD00BFD4530A086D
:101470000079FFF78FB910B504460068FFF7DEFA70
:10148000204610BD10B50446006808B1FFF7D6FA33
:1014900000232360A360636010BD38B504460D4689
:1014A00000680131FFF7D2FA10B184E82100012071
:1014B00038BD10B50368044613B143688B4207D2A8
:1014C0002046FFF7EAFF20B1A3680BB9226813702A
:1014D000012010BD70B50E46114604461546FFF7B3
:1014E000E8FF18B92046FFF7CDFF09E02A4631464C
:1014F000A560206801F0E0FC2268A3680021D154B7
:10150000204670BD38B50023044603604360836005
:1015100003730D4639B1084601F037FD29460246EE
:101520002046FFF7D7FF204638BD884210B50B464E
:10153000044607D0096819B19A68FFF7CBFF01E0AC
:10154000FFF7A0FF204610BD10B50446002303603E
:10155000436083600373FFF7E8FF204610BD08B5C2
:1015600082680B4612B919B9012008BD11B9036888
:10157000187802E0006801F0DBFCB0FA80F0400966
:1015800008BD00004FF6FF72034B00201870588012
:101590009A80FFF787B900BF68010020F0B5144BAF
:1015A000144F1E68144B064418683B6806449E425C
:1015B0008BB01BD00AA840F8286D01F081FB0446CF
:1015C000436901AD03F26C7343610FCC0FC50FCCBF
:1015D0000FC5D4F800E0094CC5F800E001AD0FCD0F
:1015E0000FC40FCD0FC43E60C4F800E00BB0F0BDD7
:1015F000A00100209C010020980100207001002023
:1016000008B50020FFF7B2F928B1FFF79FF980F085
:101610000100C0B208BD012008BD000008B5FFF7F9
:10162000BDFF014B986808BD7001002008B5FFF7A9
:10163000B5FF014B586808BD7001002008B5FFF7E1
:10164000ADFF014B186808BD7001002008B5FFF719
:10165000A5FF014BD86808BD7001002010B500201F
:10166000FFF716F8044668B9FFF714F901280BD103
:101670002046FFF737F938B9FFF7C2FF30B9FFF757
:101680005DF9F9E7012010BD002010BDFFF7B8FF9C
:101690000020FEF7FDFF003018BF012010BD08B587
:1016A000FFF7DCFFBDE80840FEF7D2BF024B1A6827
:1016B000024B1A60704700BF2400002094010020F4
:1016C00070474174704708B5007CFFF7A3F820EA23
:1016D000E07008BD08B5007CFFF774F820EAE07000
:1016E00008BD08B5007CFFF77DF830EA200028BF70
:1016F0004FF0FF3008BD08B5007CFFF76BF830EA0B
:10170000200028BF4FF0FF3008BD007CFFF772B803
:1017100010B50446142100F0F4FA204610BD70B54F
:10172000457C04460E4625B9007CFFF773F8002877
:1017300005DD3146207CBDE87040FFF73BB8284608
:1017400070BD000010B504460846114600226260D4
:101750004FF47A72A260054A2074226001226274FA
:101760001A46FFF71FF8204610BD00BF0C540A08A8
:10177000007CFFF747B8000038B50C4D296811F020
:10178000010411D12846FEF78EFC68B1084A2146B3
:10179000084B0948FFF7D6FF2846FEF789FC074AA1
:1017A0000749054800F0A8FA034838BD3C0200206C
:1017B00040020020B8010020A401002014010020F4
:1017C000C1160A0841747047704708B50021007CB3
:1017D000FFF740F830EA200028BF4FF0FF3008BD87
:1017E00008B50121007CFFF735F830EA200028BF5A
:1017F0004FF0FF3008BD08B5007CFFF723F820EA62
:10180000E07008BD08B5007CFFF714F820EAE0702E
:1018100008BD007CFFF72EB810B50446142100F077
:1018200070FA204610BD38B50446007C0D46FFF71F
:1018300009F8002801DC607C28B12946207CFFF7EC
:1018400011F820EAE07038BD10B50446002363604B
:101850004FF47A73A360054B08462360012321747B
:1018600063741146FEF7DEFF204610BD3C540A08A3
:1018700010B504461422002101F029FB054B204637
:101880006360054BE36040F20113238181232382CF
:1018900010BD00BF49030020C802002030B50E4D26
:1018A00087B001A8FFF7E4FF296811F0010410D107
:1018B0002846FEF7F8FB60B101AA21460748FFF76A
:1018C000C3FF2846FEF7F4FB054A0649034800F02B
:1018D00013FA024807B030BDC40200204C040020B7
:1018E00014010020C9170A0810B50446142200216B
:1018F00001F0EDFA054B20466360054BE36040F2D2
:10190000011323818123238210BD00BFFC0400202A
:101910006404002010B50E4C86B001A8FFF7E4FF68
:101920002368DB0710D42046FEF7BDFB60B101AA97
:1019300001210848FFF788FF2046FEF7B9FB064A59
:101940000649044800F0D8F9024806B010BD00BFAF
:1019500060040020E804002014010020C9170A08D0
:10196000002211464068FFF729B8F0B5164689B045
:1019700011220F460446002103A801F0A8FA3046C0
:1019800001F003FB0025009581B27B6803AA304675
:10199000FEF778FF20B129462046FFF753FC03E00D
:1019A00003A92046FFF73CFC204609B0F0BD002209
:1019B00011464068FFF722B8002211464068FFF741
:1019C0002DB800224068FFF721B8002281F0010104
:1019D0004068FFF70BB800231A4619464068FEF727
:1019E000FDBF00231A4619464068FEF7EFBF0022EC
:1019F00011464068FEF7D2BF002202214068FEF780
:101A0000D5BF00231A464068FEF7C0BF024B042230
:101A10005A60024A1A607047000600206C540A0897
:101A200008B5144B33B1FFF739FF03681B699847BA
:101A3000002816DC104B33B1FFF79EFE03681B69CC
:101A40009847002810DC0D4B0BB1AFF300800C4B16
:101A50007BB1FFF75FFF03681B699847002806DC2E
:101A600008BDAFF30080E5E7AFF30080EBE7AFF32D
:101A7000008008BD00000000000000000000000021
:101A80000000000008B5FFF7CBFFFEF7D9FD014BC2
:101A9000186008BD100600200248034A0349121AC4
:101AA00001F00ABA004002400440024040580A08CF
:101AB00007B5002300931A466FF07701FEF724FF65
:101AC00003B05DF804FB000007B543880A2B08D07B
:101AD000502B09D1094B1B683BB103B05DF804EBF7
:101AE0001847FFF7E5FF06E0002300931A466FF062
:101AF0007701FEF709FF03B05DF804FB080600203C
:101B000038B5104C104D2368AB42104B0CBF01226E
:101B100000221A7002D0FFF7BFFF2560FEF780FD9C
:101B2000044601F0DDF90A4B13B12046AFF3008003
:101B300000210748FEF722FFBDE838400021054894
:101B4000FEF7D8BE004002401E1C279A0C0600205B
:101B500000000000C91A0A0810B504460F48FFF734
:101B600087FC28B1A4F10D03022B01D8002010BD81
:101B700000F068F8FFF7F8FA08B1012CF6D9FFF782
:101B8000FBFDFFF7F5FD18B1A4F11203012BEDD910
:101B9000172C8CBF0020012010BD00BF4C06002078
:101BA000172838B504460D460AD8FF2908D0FFF794
:101BB000D3FF28B129462046BDE83840FEF778BD5E
:101BC00038BD38B504460D46FEF77AFDFF2810D023
:101BD000062804D84D2323FA00F0C30709D4204671
:101BE000FFF7BAFF28B129462046BDE83840FEF786
:101BF0006FBD38BD10B50446FEF762FD0438C0B2B3
:101C0000012808D92046FFF7A7FF20B12046BDE8EC
:101C10001040FEF765BD002010BD000010B5074C58
:101C20002368DB0708D42046FEF73DFA20B1FEF713
:101C300017FD2046FEF73CFA014810BD14060020AF
:101C40001806002038B50B4D296811F001040FD19A
:101C50002846FEF728FA58B121460748FFF772FADE
:101C60002846FEF725FA054A0549034800F044F8DE
:101C7000014838BD1C060020200600201401002069
:101C8000ED100A0813B5084C00231A4619460093B4
:101C90002046FFF7EDFA2046044A054902B0BDE8A8
:101CA000104000F029B800BF3406002014010020C5
:101CB000C1110A0870B50C4C0C4E0D4D0021204688
:101CC000FFF7C2FB20460B4C3246294600F014F8C1
:101CD00001212046FFF7B8FB324629462046BDE8E1
:101CE000704000F009B800BF4C060020140100202D
:101CF00039140A085C0600200B460146184600F01D
:101D0000D1BFFEF7CEB908B5FEF7B8FE244B1A686E
:101D1000D0075CBF01221A60224B1A68D1075CBF52
:101D200001221A60204B1A68D2075CBF01221A6098
:101D30001E4B1A68D0075CBF01221A601C4B1A6840
:101D4000D1075CBF01221A601A4B1A68D2075CBF28
:101D500001221A60184B1A68D0075CBF01221A6072
:101D6000164B1A68D1075CBF01221A60144B1A681F
:101D7000D2075CBF01221A60124B1A68D0075CBF01
:101D800001221A60104B1A68D1075CBF01221A6049
:101D90000E4B1A68D2075CBF01221A60704700BF61
:101DA0009806002094060020900600208C06002053
:101DB0008806002084060020800600207C06002083
:101DC0007806002074060020700600206C060020B3
:101DD000184B1A68D1075CBF01221A60164B1A68AB
:101DE000D2075CBF01221A60144B1A68D0075CBF8F
:101DF00001221A60124B1A68D1075CBF01221A60D7
:101E0000104B1A68D2075CBF01221A600E4B1A6889
:101E1000D0075CBF01221A600C4B1A68D1075CBF67
:101E200001221A600A4B1A68D2075CBF01221A60AD
:101E3000704700BFB8060020B4060020B00600209E
:101E4000AC060020A8060020A4060020A006002062
:101E50009C060020184B1A68D1075CBF01221A604B
:101E6000164B1A68D2075CBF01221A60144B1A681D
:101E7000D0075CBF01221A60124B1A68D1075CBF01
:101E800001221A60104B1A68D2075CBF01221A6047
:101E90000E4B1A68D0075CBF01221A600C4B1A68FF
:101EA000D1075CBF01221A600A4B1A68D2075CBFD7
:101EB00001221A60704700BFD8060020D406002017
:101EC000D0060020CC060020C8060020C406002052
:101ED000C0060020BC060020244B1A68D0075CBF57
:101EE00001221A60224B1A68D1075CBF01221A60D6
:101EF000204B1A68D2075CBF01221A601E4B1A6879
:101F0000D0075CBF01221A601C4B1A68D1075CBF66
:101F100001221A601A4B1A68D2075CBF01221A60AC
:101F2000184B1A68D0075CBF01221A60164B1A685A
:101F3000D1075CBF01221A60144B1A68D2075CBF3C
:101F400001221A60124B1A68D0075CBF01221A6086
:101F5000104B1A68D1075CBF01221A600E4B1A6839
:101F6000D2075CBF01221A60704700BF080700203B
:101F70000407002000070020FC060020F8060020CF
:101F8000F4060020F0060020EC060020E806002001
:101F9000E4060020E0060020DC06002081F000417D
:101FA00002E000BF83F0004330B54FEA41044FEA3E
:101FB000430594EA050F08BF90EA020F1FBF54EAD9
:101FC000000C55EA020C7FEA645C7FEA655C00F075
:101FD000E2804FEA5454D4EB5555B8BF6D420CDD46
:101FE0002C4480EA020281EA030382EA000083EAC9
:101FF000010180EA020281EA0303362D88BF30BD69
:1020000011F0004F4FEA01314FF4801C4CEA1131BE
:1020100002D0404261EB410113F0004F4FEA03331D
:102020004CEA133302D0524263EB430394EA050FA8
:1020300000F0A780A4F10104D5F1200E0DDB02FA17
:102040000EFC22FA05F2801841F1000103FA0EF2AB
:10205000801843FA05F359410EE0A5F120050EF171
:10206000200E012A03FA0EFC28BF4CF0020C43FAA2
:1020700005F3C01851EBE37101F0004507D54FF0AF
:10208000000EDCF1000C7EEB00006EEB0101B1F5FF
:10209000801F1BD3B1F5001F0CD349085FEA300045
:1020A0004FEA3C0C04F101044FEA445212F5800F50
:1020B00080F09A80BCF1004F08BF5FEA500C50F1ED
:1020C000000041EB045141EA050130BD5FEA4C0CD0
:1020D000404141EB010111F4801FA4F10104E9D159
:1020E00091F0000F04BF01460020B1FA81F308BF50
:1020F0002033A3F10B03B3F120020CDA0C3208DD1C
:1021000002F1140CC2F10C0201FA0CF021FA02F1F6
:102110000CE002F11402D8BFC2F1200C01FA02F166
:1021200020FA0CFCDCBF41EA0C019040E41AA2BF8B
:1021300001EB0451294330BD6FEA04041F3C1CDA53
:102140000C340EDC04F11404C4F1200220FA04F073
:1021500001FA02F340EA030021FA04F345EA03011D
:1021600030BDC4F10C04C4F1200220FA02F001FADF
:1021700004F340EA0300294630BD21FA04F0294661
:1021800030BD94F0000F83F4801306BF81F48011FA
:102190000134013D4EE77FEA645C18BF7FEA655C6D
:1021A00029D094EA050F08BF90EA020F05D054EA3F
:1021B000000C04BF1946104630BD91EA030F1EBF44
:1021C0000021002030BD5FEA545C05D14000494148
:1021D00028BF41F0004130BD14F580043CBF01F53B
:1021E000801130BD01F0004545F0FE4141F4700121
:1021F0004FF0000030BD7FEA645C1ABF19461046FC
:102200007FEA655C1CBF0B46024650EA013406BFFC
:1022100052EA033591EA030F41F4002130BD00BFBB
:1022200090F0000F04BF0021704730B54FF4806478
:1022300004F132044FF000054FF0000150E700BFF9
:1022400090F0000F04BF0021704730B54FF4806458
:1022500004F1320410F0004548BF40424FF0000145
:102260003EE700BF42004FEAE2014FEA31014FEA88
:1022700002701FBF12F07F4393F07F4F81F06051D7
:10228000704792F0000F14BF93F07F4F704730B546
:102290004FF4607401F0004521F0004120E700BFD9
:1022A00050EA010208BF704730B54FF000050AE060
:1022B00050EA010208BF704730B511F0004502D561
:1022C000404261EB41014FF4806404F132045FEA63
:1022D000915C3FF4DCAE4FF003025FEADC0C18BF08
:1022E00003325FEADC0C18BF033202EBDC02C2F1FE
:1022F000200300FA03FC20FA02F001FA03FE40EA90
:102300000E0021FA02F11444C1E600BF70B54FF08F
:10231000FF0C4CF4E06C1CEA11541DBF1CEA135571
:1023200094EA0C0F95EA0C0F00F0DEF82C4481EAD9
:10233000030621EA4C5123EA4C5350EA013518BFF9
:1023400052EA033541F4801143F4801338D0A0FBE6
:1023500002CE4FF00005E1FB02E506F00042E0FB93
:1023600003E54FF00006E1FB03569CF0000F18BF99
:102370004EF0010EA4F1FF04B6F5007F64F5407441
:1023800004D25FEA4E0E6D4146EB060642EAC621D4
:1023900041EA55514FEAC52040EA5E504FEACE2E41
:1023A000B4F1FD0C88BFBCF5E06F1ED8BEF1004F44
:1023B00008BF5FEA500E50F1000041EB045170BDC0
:1023C00006F0004646EA010140EA020081EA030104
:1023D000B4EB5C04C2BFD4EB0C0541EA045170BD00
:1023E00041F480114FF0000E013C00F3AB8014F17A
:1023F000360FDEBF002001F0004170BDC4F10004C3
:10240000203C35DA0C341BDC04F11404C4F1200543
:1024100000FA05F320FA04F001FA05F240EA02009E
:1024200001F0004221F0004110EBD37021FA04F6D4
:1024300042EB06015EEA430E08BF20EAD37070BD8E
:10244000C4F10C04C4F1200500FA04F320FA05F0ED
:1024500001FA04F240EA020001F0004110EBD370EF
:1024600041F100015EEA430E08BF20EAD37070BD5F
:10247000C4F1200500FA05F24EEA020E20FA04F338
:1024800001FA05F243EA020321FA04F001F00041E7
:1024900021FA04F220EA020000EBD3705EEA430E58
:1024A00008BF20EAD37070BD94F0000F0FD101F087
:1024B0000046400041EB010111F4801F08BF013CC0
:1024C000F7D041EA060195F0000F18BF704703F0FE
:1024D0000046520043EB030313F4801F08BF013D85
:1024E000F7D043EA0603704794EA0C0F0CEA135541
:1024F00018BF95EA0C0F0CD050EA410618BF52EAFB
:102500004306D1D181EA030101F000414FF0000000
:1025100070BD50EA410606BF1046194652EA43060E
:1025200019D094EA0C0F02D150EA013613D195EA82
:102530000C0F05D152EA03361CBF104619460AD1CA
:1025400081EA030101F0004141F0FE4141F47001D4
:102550004FF0000070BD41F0FE4141F4780170BDC4
:1025600070B54FF0FF0C4CF4E06C1CEA11541DBF29
:102570001CEA135594EA0C0F95EA0C0F00F0A7F82B
:10258000A4EB050481EA030E52EA03354FEA013158
:1025900000F088804FEA03334FF0805545EA13136B
:1025A00043EA12634FEA022245EA111545EA106533
:1025B0004FEA00260EF000419D4208BF964244F1CA
:1025C000FD0404F5407402D25B084FEA3202B61AE9
:1025D00065EB03055B084FEA32024FF480104FF4BD
:1025E000002CB6EB020E75EB030E22BFB61A754631
:1025F00040EA0C005B084FEA3202B6EB020E75EBC4
:10260000030E22BFB61A754640EA5C005B084FEA2B
:102610003202B6EB020E75EB030E22BFB61A7546F8
:1026200040EA9C005B084FEA3202B6EB020E75EB03
:10263000030E22BFB61A754640EADC0055EA060EC4
:1026400018D04FEA051545EA16754FEA06164FEA07
:10265000C30343EA52734FEAC2025FEA1C1CC0D1B3
:1026600011F4801F0BD141EA00014FF000004FF040
:10267000004CB6E711F4801F04BF01430020B4F101
:10268000FD0C88BFBCF5E06F3FF6AFAEB5EB030CB9
:1026900004BFB6EB020C5FEA500C50F1000041EBB6
:1026A000045170BD0EF0004E4EEA113114EB5C0483
:1026B000C2BFD4EB0C0541EA045170BD41F4801156
:1026C0004FF0000E013C90E645EA060E8DE60CEA5E
:1026D000135594EA0C0F08BF95EA0C0F3FF43BAF7B
:1026E00094EA0C0F0AD150EA01347FF434AF95EA32
:1026F0000C0F7FF425AF104619462CE795EA0C0F16
:1027000006D152EA03353FF4FDAE1046194622E7E2
:1027100050EA410618BF52EA43067FF4C5AE50EABC
:1027200041047FF40DAF52EA43057FF4EBAE12E7AC
:102730004FF0FF3C06E000BF4FF0010C02E000BF8D
:102740004FF0010C4DF804CD4FEA410C7FEA6C5C70
:102750004FEA430C18BF7FEA6C5C1BD001B050EA13
:10276000410C0CBF52EA430C91EA030F02BF90EAFE
:10277000020F0020704710F1000F91EA030F58BFBD
:10278000994208BF90422CBFD8176FEAE37040F01F
:10279000010070474FEA410C7FEA6C5C02D150EABD
:1027A000013C07D14FEA430C7FEA6C5CD6D152EA78
:1027B000033CD3D05DF8040B704700BF844610463D
:1027C00062468C461946634600E000BF01B5FFF73C
:1027D000B7FF002848BF10F1000F01BD4DF808ED0C
:1027E000FFF7F4FF0CBF012000205DF808FB00BFDD
:1027F0004DF808EDFFF7EAFF34BF012000205DF837
:1028000008FB00BF4DF808EDFFF7E0FF94BF012083
:1028100000205DF808FB00BF4DF808EDFFF7CEFF84
:1028200094BF012000205DF808FB00BF4DF808EDC3
:10283000FFF7C4FF34BF012000205DF808FB00BF94
:102840004FEA410C7FEA6C5C02D150EA013C0AD1AC
:102850004FEA430C7FEA6C5C02D152EA033C02D19E
:102860004FF0000070474FF0010070474FEA4102FF
:1028700012F5001215D211D56FF47873B3EB6252D2
:1028800012D94FEAC12343F0004343EA505311F0F9
:10289000004F23FA02F018BF404270474FF000008B
:1028A000704750EA013005D111F0004008BF6FF0C9
:1028B000004070474FF00000704700BF4A0011D23F
:1028C00012F5001211D20DD56FF47873B3EB62528A
:1028D0000ED44FEAC12343F0004343EA505323FA96
:1028E00002F070474FF00000704750EA013002D10B
:1028F0004FF0FF3070474FF0000070474FEA410241
:10290000B2F1E04324BFB3F5001CDCF1FE5C0DD94D
:1029100001F0004C4FEAC0024CEA5070B2F1004F97
:1029200040EB830008BF20F00100704711F0804F9A
:1029300021D113F13872BCBF01F00040704741F45F
:1029400080114FEA5252C2F11802C2F1200C10FA63
:102950000CF320FA02F018BF40F001004FEAC12347
:102960004FEAD32303FA0CFC40EA0C0023FA02F3EB
:102970004FEA4303CCE77FEA625307D150EA0133C1
:102980001EBF4FF0FE4040F44000704701F0004091
:1029900040F0FE4040F40000704700BF80F000406F
:1029A00002E000BF81F0004142001FBF5FEA410327
:1029B00092EA030F7FEA226C7FEA236C6AD04FEA27
:1029C0001262D2EB1363C1BFD2184140484041406C
:1029D000B8BF5B42192B88BF704710F0004F40F41E
:1029E000000020F07F4018BF404211F0004F41F43A
:1029F000000121F07F4118BF494292EA030F3FD006
:102A0000A2F1010241FA03FC10EB0C00C3F1200318
:102A100001FA03F100F0004302D5494260EB4000A7
:102A2000B0F5000F13D3B0F1807F06D340084FEA12
:102A3000310102F10102FE2A51D2B1F1004F40EB07
:102A4000C25008BF20F0010040EA0300704749006F
:102A500040EB000010F4000FA2F10102EDD1B0FA3A
:102A600080FCACF1080CB2EB0C0200FA0CF0AABF2F
:102A700000EBC25052421843BCBFD04018437047CD
:102A800092F0000F81F4000106BF80F400000132D3
:102A9000013BB5E74FEA41037FEA226C18BF7FEAAA
:102AA000236C21D092EA030F04D092F0000F08BFEC
:102AB0000846704790EA010F1CBF0020704712F0D3
:102AC0007F4F04D1400028BF40F00040704712F112
:102AD00000723CBF00F50000704700F0004343F077
:102AE000FE4040F4000070477FEA226216BF0846AD
:102AF0007FEA23630146420206BF5FEA412390EA70
:102B0000010F40F4800070474FF0000304E000BF65
:102B100010F0004348BF40425FEA000C08BF704716
:102B200043F0964301464FF000001CE050EA0102DA
:102B300008BF70474FF000030AE000BF50EA0102EF
:102B400008BF704711F0004302D5404261EB4101DC
:102B50005FEA010C02BF84460146002043F0B64301
:102B600008BFA3F18053A3F50003BCFA8CF2083A26
:102B7000A3EBC25310DB01FA02FC634400FA02FC2F
:102B8000C2F12002BCF1004F20FA02F243EB020036
:102B900008BF20F00100704702F1200201FA02FC98
:102BA000C2F1200250EA4C0021FA02F243EB02008B
:102BB00008BF20EADC7070474FF0FF3C06E000BF22
:102BC0004FF0010C02E000BF4FF0010C4DF804CDB6
:102BD0004FEA40024FEA41037FEA226C18BF7FEAC6
:102BE000236C11D001B052EA530C18BF90EA010FC8
:102BF00058BFB2EB030088BFC81738BF6FEAE17057
:102C000018BF40F0010070477FEA226C02D15FEAF2
:102C1000402C05D17FEA236CE4D15FEA412CE1D05E
:102C20005DF8040B704700BF844608466146FFE725
:102C30000FB5FFF7C9FF002848BF10F1000F0FBD07
:102C40004DF808EDFFF7F4FF0CBF012000205DF800
:102C500008FB00BF4DF808EDFFF7EAFF34BF012085
:102C600000205DF808FB00BF4DF808EDFFF7E0FF1E
:102C700094BF012000205DF808FB00BF4DF808ED6F
:102C8000FFF7D2FF94BF012000205DF808FB00BFD2
:102C90004DF808EDFFF7C8FF34BF012000205DF8B4
:102CA00008FB00BF10B5054C13462CB10A4601467F
:102CB0000220AFF3008010BD204610BD00000000D0
:102CC00038B5074B05461C68E36B1BB92420FDF79C
:102CD000ADFEE063E16B2846BDE8384000F002B885
:102CE0008C0000202DE9F0410C46804601F0C0FD2B
:102CF00021460746404601F0BFFD4669044606F2FC
:102D00006C76B30705D1642296FBF2F302FB1363E2
:102D10004BB94FF4C87596FBF5F305FB1365B5FA8F
:102D200085F35B0900E001235F4A302505FB03259D
:102D300001F0B4F801F0B4F85C4B1B68F3B17B68A8
:102D40009E4205D13968D8F80030FA6941B90AE0E5
:102D5000304600F0FBFF0028F4D14FF0FF330DE0C8
:102D6000934208DB01E0934207DABA6B9342ACBFAF
:102D70000023012302E0002300E001232362236AF1
:102D80003C20012B0CBFF96B396A4FF4616391FB56
:102D9000F3F603FB161393FBF0F200FB12306168AD
:102DA0002368891AA2681B1A921B3B2B236061605F
:102DB000A26003DD013161603C3B04E0002B03DADB
:102DC000013961603C33236063683B2B03DD0132D2
:102DD000A2603C3B04E0002B03DA013AA2603C33E2
:102DE0006360A368172B22DDE269183B0132E261C0
:102DF000A269A3600132062AC8BF0022A261E2686C
:102E000023690132E26055F823108A4246DD01331E
:102E10000C2B08BF6369A2EB0102E26005BF01331E
:102E200000222361226104BF6361E26136E0002B6E
:102E300034DAE2691833013AE261A269A360013A27
:102E400048BF0622A261E268013AE26032BB236910
:102E5000013B01D423611DE00B23236163695A1EEA
:102E600012F0030F626103F26B7305D1642193FBCF
:102E7000F1F201FB12324AB94FF4C87193FBF1F23F
:102E800001FB1233B3FA83F35B0900E0012303F57E
:102E9000B673E361236955F82330E36000F0FFFF68
:102EA0002046BDE8F08100BF08560A082807002028
:102EB000004870479000002010B5431E0A4491421C
:102EC00004D011F8014B03F8014FF8E710BD034699
:102ED0000244934202D003F8011BFAE77047000056
:102EE00038B5124B05461C68A36BD3B91820FDF703
:102EF0009DFD43F20E33A06303804AF6CD33438039
:102F000041F2342383804EF26D63C3804DF6EC634F
:102F10000381052343810B23838101220023C0E920
:102F20000423A36B00221D615A6138BD8C00002070
:102F300010F8012B11F8013B012A28BF9A42F7D063
:102F4000D01A7047034611F8012B03F8012B002A11
:102F5000F9D17047024B0146186800F003B800BF72
:102F60008C00002070B5064608460C4600F00DF8AF
:102F7000451C29463046FDF789FD064618B12A460C
:102F80002146FFF799FF304670BD034613F8012B29
:102F9000002AFBD1181A0138704730B582B1451E9E
:102FA000013915F8013F11F8014FA34206D1EC4356
:102FB0001444E04201D0002BF3D11C46181B30BD55
:102FC000104630BD2DE9F0410F46904601F0B0FFAC
:102FD00004460D46B8F1000F11D0C7F30A53C3F1F0
:102FE0006B03002B0BDD1B0503F17F55002405F55A
:102FF000401522462B46FFF789F9BDE8F0812046AF
:103000002946BDE8F08100002DE9F04F82460C46CC
:103010009DB00023139218934FF000084FF0000961
:103020001791179B1A780D2A05D8092A13D2002A5E
:1030300000F0AD8112E02B2A04D02D2A04D0202AE2
:103040000CD108E0002200E001220C925A1C1792D9
:103050005B782BB99BE101331793E2E700230C93D4
:10306000179D2B78302B5CD16B78582B01D0782BA7
:103070004CD10C9BA84A019318AB009317A919AB2C
:10308000504601F0DEF810F00706044600F0858592
:10309000062E05D10135002317950C9300F07DBD58
:1030A000189A3AB135211AA802F029F81899504611
:1030B00001F0ADFC062E22D8DFE806F0040D08185A
:1030C0001D0D04004FF00009C84618E0DDF86880C7
:1030D000DDF86C9013E01B9B199A23F4801302F225
:1030E0003342DDF8688043EA025908E0DFF82C92A9
:1030F0004FF0000803E06FF000494FF0FF38210760
:1031000040F14B8549F0004900F047BD179B5A1C20
:1031100017925B78302BF9D0002B00F03E8501230D
:1031200000E000230593179B0A22069300239B4689
:1031300002930493179D2E78A6F13003D9B2092982
:1031400011D8BBF1080FD5BF0499029902FB0133D6
:1031500002FB013305F10105D4BF049302930BF187
:10316000010B1795E6E75046FFF7A2FE07685046A9
:10317000FFF79EFE0068FFF708FF39460246284623
:10318000FFF70BFF074628B1002033465D46024695
:1031900001465AE05046FFF78BFE0068FFF7F5FE48
:1031A000179B1A1817921B5CBBF1000F45D15846AC
:1031B000302B05D1179B01305A1C17925B78F7E72B
:1031C000A3F13102082A46D8179A06920246002037
:1031D0000546303B00F1010129D00A44294605EBA0
:1031E000000C0A2661450FD0013101F1FF3EBEF10E
:1031F000080F03DC049F77430497F3E71029DEBF31
:10320000029F77430297EDE72844082800F1010563
:1032100005DC04980A2101FB0033049306E0102D1D
:10322000DFBF02980A2101FB003302930021179BA4
:10323000581C17905B78084602E05D4638463A46CF
:10324000A3F130010929C4D90121652B01D0452BF7
:103250004FD16DB904E0652B40F0AD84002201210F
:1032600028B9059B002B00F09280054600E0002560
:10327000179C631C179363782B2B06D02D2B02D041
:103280000026039606E0012300E000230393A31C1D
:103290001793A378A3F13006092E29D8302B04D137
:1032A000179B5E1C17965B78F8E7A3F13106082E92
:1032B0001FD8A3F1300E179B1F46179B5E1C179655
:1032C0005B78A3F1300CBCF1090F05D80A2606FB88
:1032D0000E3EAEF1300EF0E7F61B082E44F61F66E8
:1032E00002DC7645A8BF7646039F1FB1764201E017
:1032F00017940026002D52D1002840F04E84059AE4
:10330000002A40F04A84002941D14E2B20D007DC0E
:10331000492B0AD03BE000BF68560A080000F07F46
:10332000692B02D06E2B13D031E0AA4917A801F007
:10333000B9F960B3179BA849013B17A8179301F08F
:10334000B1F910B9179B01331793DFF8A8921AE06F
:10335000A24917A801F0A6F9C8B1179B1B78282B22
:103360000FD11AAA9E4917A801F0AFF9052808D174
:103370001B9BDDF8688043F0FF4949F4E00900F049
:103380000CBCDFF874924FF0000800F006BC139BF1
:103390001794002B00F00C8400230C93FFE32C46C1
:1033A000BBF1000F08BFAB460498102DA8BF102436
:1033B000B71AFEF735FF092C8046894613DD894B85
:1033C00003EBC40353E91223FEF7A0FF80460298E3
:1033D0008946FEF725FF02460B4640464946FEF762
:1033E000E3FD804689460F2D33DC002F00F0D583A6
:1033F00022DD162F07DC7B4D424605EBC7014B460D
:10340000D1E9000113E0C5F125039F4221DC754C91
:10341000C5F10F0504EBC5017D1B4246D1E9000152
:103420004B4604EBC504FEF771FFD4E90023FEF719
:103430006DFF80468946B0E317F1160F09DB694D31
:103440004046A5EBC703D3E900234946FFF788F8B8
:10345000EFE72C1B3C44002C5DDD14F00F010AD07B
:10346000604B424603EBC101D1E900014B46FEF738
:103470004DFF8046894634F00F0400F0C180B4F55A
:103480009A7F0FDD4FF0000BCDF808B0CDF814B0E7
:10349000CDF810B02223CAF80030DFF858914FF071
:1034A000000889E14046494600234F4E241102930B
:1034B000012C0CDDE20704D5D6E90023FEF726FF38
:1034C0000123029A6410013202920836F0E70BB130
:1034D00080468946444B029AA9F1547903EBC20114
:1034E000D1E9000142464B46FEF710FF21F00043B0
:1034F00089460A461B0D3D491B058B428046C1D8B3
:10350000A1F580118B4286BFDFF8F0904FF0FF38B5
:1035100002F1547974E073D0644214F00F020AD0BF
:10352000304B404603EBC2034946D3E90023FFF783
:1035300017F880468946241162D01F2C08DD4FF011
:10354000000BCDF808B0CDF814B0CDF810B02CE1D8
:103550004046494614F0100F0CBF00236A23244E46
:1035600003930023002C09DDE20704D5D6E90023EC
:10357000FEF7CCFE012364100836F3E70BB180465A
:103580008946039BEBB1C9F30A53C3F16B03002BCC
:10359000494616DD1F2B0EDD342BDEBF203B4FF0DE
:1035A000FF3202FA03F34FF00008CCBF4FF05C7912
:1035B00003EA010905E04FF0FF3202FA03F303EAE0
:1035C00008080022002340464946FFF707F9002873
:1035D000B5D117E07C560A087F560A0885560A08B6
:1035E00088560A0808570A08D0570A080000A07C25
:1035F000A0560A080000F07F0000F8FFFFFFEF7FF1
:1036000000230393049B5A46009306992B46504689
:1036100001F04FFA059000283FF434AF002FC7F1B6
:103620000003A8BF00230D934FF0000B27EAE773B8
:103630001293CDF808B0059B5046596801F0B2F9D5
:10364000049000283FF426AF059B0C301A6903F163
:103650000C0102329200FFF72FFC1AAB019319AB59
:10366000009342464B465046CDE9088901F0D1FC13
:10367000189000283FF40EAF0121504601F0A4FA43
:10368000029000283FF406AF199B0399002BACBFB2
:103690000D9A129A1A9CACBFD618D21AA3EB01034A
:1036A0002344B14903F1FF33ACBF129A0D9E8B4204
:1036B000C4F1360480F28580C91A1F29C8BFAB4DFA
:1036C0004FF00107D4BF07FA01F3ED1AA4EB010490
:1036D000D9BF0793002507FA05F507973719039B0C
:1036E000BE4214441C443346A8BF3B46A342A8BF75
:1036F0002346002BC2BFFF1AE41AF61A0D9B002BBB
:1037000063D1002F7ADC129B002B40F08180002CCB
:1037100000F38880002E00F38F80049A1899504699
:1037200001F0A7FB834600283FF4B4AEC368002431
:10373000C4600299069301F080FBA04280F28B8066
:10374000069B002B40F00282B8F1000F40F0FE8192
:10375000C9F31303002B40F0F98129F000431B0D3E
:103760001B05B3F1D66F40F2F181DBF81430002B6A
:103770006CD059460122504601F00EFB0299834657
:1037800001F05BFB002840F3E18129F00043039A3C
:103790001B0D1B05002A00F08D80B3F1D66F00F3DE
:1037A0008980B3F15C7F00F3D38122234FF00008BE
:1037B0004FF00009CAF80030059B002B40F0D9817A
:1037C000EBE101230025079388E71A46029950464A
:1037D00001F094FA029000283FF45CAE0146189A7A
:1037E000504601F0FAF9069000283FF453AE1899BC
:1037F000504601F00CF9069B189382E73A46189957
:10380000504601F0C9FA189000287FF47CAF41E6D9
:10381000129A0499504601F071FA049000287FF43E
:1038200076AF37E622460499504601F0B5FA049087
:1038300000287FF46FAF2DE632460299504601F022
:10384000ABFA029000287FF468AF23E6DBF8103073
:10385000012B8EDC7AE161D1069AC9F3130322B3FE
:1038600043494A468B422ED1039B414663B1414BAB
:103870001340B3F1D46F07D81B0DC3F16B034FF0A6
:10388000FF3000FA03F301E04FF0FF338B421AD10F
:1038900039498A4202D101333FF4FCAD354B4FF038
:1038A0000008134003F5801950E163B9B8F1000F27
:1038B00009D16AE7A3F580136FEA13594FF0FF3877
:1038C0006FEA095942E115B115EA090F02E0079BB9
:1038D00013EA080F00F03A81069B039A40464946D6
:1038E00053B1FFF76FFB02460B46DDE90801FEF717
:1038F0005BFB8046894629E1FFF764FB02460B46E5
:10390000DDE90801FEF74EFB0022002380468946D0
:10391000FEF764FF00287FF448AF17E1029958468C
:1039200001F0C5FB00224FF0804306460F46FEF72C
:1039300069FF00283FD0069B13B100260F4F10E00F
:10394000B8F1000F03D1C9F313033BB91AE0B8F182
:10395000010F03D1B9F1000F3FF427AF084F002644
:103960000024064D3CE000BF02FCFFFFE2FBFFFF2E
:10397000FFFF0F000000F07FFFFFEF7F0000F03F30
:103980000000F0BF00229A4B30463946FEF730FF68
:1039900040B90022974B30463946FEF7B7FC044643
:1039A0000D4601E0069C934D05F1004314941593D8
:1039B000DDE9146714E08F4B002230463946FEF7EC
:1039C000A5FC069B04460D4623B901F100430E9069
:1039D0000F9303E002460B46CDE90E23DDE90E67A7
:1039E00029F000431B0D1B050793079A824B9A424F
:1039F0002BD1DDE90823A9F1547940464946CDE9A8
:103A00000A2301F095FA02460B4630463946FEF786
:103A10007DFC42464B46FEF7C7FA21F000431B0DE2
:103A2000764A1B05934280460CD9754B0B9A9A42F5
:103A300003D10A9B01333FF42DADDFF8C4914FF061
:103A4000FF3872E001F1547939E0039B3BB3079BE7
:103A5000B3F1D46F23D85EA3D3E9002320462946CF
:103A6000FEF7D0FEB8B129462046FEF727FF002812
:103A700008BF0120FEF7D4FB069B04460D4623B980
:103A800001F100431090119303E002460B46CDE98B
:103A90001023DDE91067079A07F1D6639F1ADDE965
:103AA000080101F045FA02460B4630463946FEF75A
:103AB0002DFCDDE90823FEF777FA80468946039B53
:103AC0009BBB29F000431B0D079A1B059A424E46EB
:103AD0002BD129462046FEF7C9FEFEF7B1FB0B4667
:103AE000024629462046FEF75DFA069B04460D462F
:103AF0002BB9B8F1000F02D1C9F313067EB136A37A
:103B0000D3E9002320462946FEF772FE88BB34A382
:103B1000D3E9002320462946FEF788FE04E032A3BD
:103B2000D3E90023FEF764FE18BB1899504600F055
:103B30006EFF0499504600F06AFF0299504600F06B
:103B400066FF5946504600F062FF74E5039B83B15F
:103B50002C4B40460B9300230A934946DDE90A2388
:103B6000FEF7D4FB8046894619B910B92223CAF85A
:103B700000301899504600F04AFF0499504600F072
:103B800046FF0299504600F042FF0599504600F06A
:103B90003EFF5946504600F03AFF139B13B1179B66
:103BA000139A13600C9B1BB1424609F1004307E0D6
:103BB00042464B4604E000252A460121FFF747BB59
:103BC000104619461DB0BDE8F08F00BFAFF300806E
:103BD0000000C0FFFFFFDF419535A094FFFFDF3FEE
:103BE00035E5AF350000E03F9535A094FFFFCF3FAE
:103BF0000000F03F0000E03F0000E07FFFFF9F7CFF
:103C0000FFFFEF7F0000503938B50B4B0A460146E5
:103C10001868FFF7F9F902460B4604460D46FEF711
:103C20000FFE20B10020BDE8384001F0B3BA2046B5
:103C30002946FEF763FE38BD8C0000202DE9F047D1
:103C40000E4680463B48D0F80090354615F8014BAB
:103C500009EB0400407800F0080000F0FF0708B10D
:103C60002E46F2E72D2C03D1B51C7478012703E012
:103C70002B2C04BF7478B51C13B1102B0AD153E060
:103C8000302C4FD1287800F0DF00582845D16C78CF
:103C9000102302354FF0FF3CBCFBF3FC03FB0CFA96
:103CA00000266FEA0A0A304609EB040E9EF801E08E
:103CB0001EF0040F01D0303C0BE01EF0030E1AD0B2
:103CC000BEF1010F0CBF4FF0370E4FF0570ECEEB89
:103CD0000404A3420FDD002E08DB604506D801D1A5
:103CE000544503DC03FB0040012601E04FF0FF36A2
:103CF00015F8014BD8E7002E07DA2223C8F8003068
:103D00004FF0FF302AB9BDE8F08707B1404272B1E9
:103D100006B1691E1160BDE8F0873024002BB9D1CF
:103D20000823B7E70A23B5E7302CABD0B2E7BDE8EC
:103D3000F08700BF2800002013460A4601460248CB
:103D40000068FFF77BBF00BF8C0000202DE9F74F14
:103D5000044600F08DFD40F2B1739C4240F3968022
:103D600040F26D156FF4F663E318A4F2B2729B1083
:103D700005FB0235A4F26D726FF0630392FBF3F35F
:103D80006FF4C8622B44A5184FF4C87294FBF2F785
:103D900095FBF2F502FB17471D44642394FBF3F6F1
:103DA000B7FA87FE014603FB164600F1380301937C
:103DB00004F0030344604FEA5E1E00934FF0070CCB
:103DC0000B7A4A2B0ED14B69009AEC1802B906B94E
:103DD00027B93B2BD4BF0023012300E00023234459
:103DE000013B3FE0442B02D14B692B443AE0009B5E
:103DF0002BB9002E0CBFF0464FF0010800E0F04652
:103E0000A946244B302202FB0838CC68A8F1040AEA
:103E10000123A34204DA5AF804BF0133D944F8E776
:103E200009F1040393FBFCFBCBEBCB0ACAEB030ABF
:103E30004B69012CB8BF0124B3EB0A0A0B6904F1EA
:103E4000804403F1FF3304F1FF3448BF0AF1070A4D
:103E5000C3EBC30358F824405344A34201DB073BA0
:103E6000FBE74B448C690C4A02FB03430C6A234476
:103E700041F81C3F019B9942A2D1C369826B9342D6
:103E8000ACBF002301230360012000E0002003B049
:103E9000BDE8F08F08560A0880510100704770474E
:103EA000014B186800F002B88C0000202DE9F04F9B
:103EB0008DB0074600F0DCFCB0490446384600F0FF
:103EC000CFFCAF4E054660B9AE4BAF4A1860AF4B62
:103ED0001860AF4B30681A605A60FCF7AFFD356070
:103EE00048E1316879B93068FCF7A8FD2846FFF74A
:103EF0004CF8411C3846FCF7C9FD306048B12946F2
:103F0000FFF720F805E0FFF713F8002800F03281F2
:103F1000E9E72B780AAE3A2B08BF013533469D4AB4
:103F20009D492846FCF79AFD002840F323810A9B0F
:103F3000EF18EB5C2D2B03D101374FF0FF3503E079
:103F40002B2B08BF013701250DF1200A0DF11E0BA7
:103F50004FF000080396CDF808A00196CDF800B008
:103F6000334607AA8D493846ADF81E80ADF820804B
:103F7000FCF774FD404540F3FD80BDF81E20BDF800
:103F800020303C2101FB0233BDF81C204FF461615D
:103F900001FB02335D437F4B25627D4DDFF80892C4
:103FA0002B600A9B4A461F447B4933463846FCF740
:103FB00055FD404508DC2B68226A6B60714B1A6026
:103FC000724BC3F80080D5E00A9BC5F80490FD1839
:103FD000FB5C2D2B03D101354FF0FF3703E02B2B7A
:103FE00008BF013501270023ADF81C30ADF81E30A5
:103FF000ADF820300A930396CDF808A00196CDF8CD
:1040000000B0334607AA65492846FCF727FD00287B
:1040100004DC236AA3F56163E3630EE0BDF81E20B0
:10402000BDF820303C2101FB0233BDF81C204FF4C9
:10403000616101FB02335F43E76327460A9B4FF050
:1040400000091D442B782C2B08BF013595F8008002
:10405000B8F14D0F26D10DF12603029309AB009361
:104060000396019633460DF122024D492846FCF78E
:10407000F5FC03287ED1BDF822104B1E0B2B79D8FE
:10408000BDF82420531E042B74D8BDF82630062B0F
:1040900070D887F80880F9603A617B610A9B05EB6C
:1040A00003082AE0B8F14A0F06BF4346013544230E
:1040B0000A220BA928460593FFF73EFEDDF82C8067
:1040C000ADF826004545059B14D14D23B9F1000FED
:1040D00007D123720323E36002232361C4F8149001
:1040E0000BE084F824300B23A3620123E362002356
:1040F000236302E080B23B7278610223ADF81C308A
:104100000023ADF81E30ADF820300A9398F8003047
:104110002F2B0BD10396CDF808A00196CDF800B057
:10412000334607AA1F494046FCF798FCBDF81E20FD
:10413000BDF820303C2101FB0233BDF81C204FF4B8
:10414000616101FB0233BB610A9D09F10109B9F10B
:10415000020F454407F11C077FF474AF6068FFF756
:10416000F5FD226A074B1A60E36B9B1A074A18BFDA
:10417000012313600DB0BDE8F08F00BFC8560A08D8
:10418000240700202C070020CB560A08280700200F
:10419000C800002017070020CF560A08F2560A0868
:1041A000DE560A08F1560A080C070020F0B5066929
:1041B0004B11B34200F1140527DA11F01F0105EB92
:1041C000860605EB830201D1294616E0141D55F839
:1041D00023202B46C1F1200ECA40B44209D22768E1
:1041E00007FA0EF73A4343F8042B54F8042BCA405D
:1041F000F3E71A6052B1043308E0B2420B4605D22D
:1042000052F8043B41F8043BF7E72B465B1B9B103D
:10421000036103B94361F0BDA0F13003092B01D85C
:1042200020380AE0A0F16103052B01D8473804E0EB
:10423000A0F14103052B02D82738C0B270470020F7
:1042400070472DE9F04F8BB08A4690460693029056
:10425000FEF72EFE03684FF0000B18460393FEF79F
:1042600094FE039B0190034413F8013C0793DAF892
:10427000003002331F4613F8010B302802D10BF136
:10428000010BF7E7FFF7C8FF0446E0B9019A03996D
:104290003846FEF782FE002834D1019BF85CFE18F8
:1042A000FFF7BAFF80B3334618781F46302803F172
:1042B0000103F9D0FFF7B0FFB0FA80F534466D097D
:1042C0004FF0010B01E000252C463A4616463078A7
:1042D0000132FFF7A1FF0028F8D1019A0399304677
:1042E000FEF75BFE50B954B9019BF41822461646FE
:1042F00030780132FFF790FF0028F8D134B1A41BC9
:10430000A40003E03E4600E0044601253378502B2C
:1043100001D0702B2AD173782B2B08D02D2B03D0F2
:10432000711C4FF0000905E04FF0010901E04FF06A
:104330000009B11C0878FFF76FFF431EDBB2182B92
:1043400014D8A0F1100211F8010FFFF765FF431E0A
:10435000DBB2182B04D80A2303FB0202103AF2E75F
:10436000B9F1000F00D05242144400E03146CAF8BF
:1043700000102DB1BBF1000F14BF002006207CE11E
:104380002946F31B013B072B02DD01315B10FAE7E5
:10439000029800F007FB4FF000090546CB46019B51
:1043A00000F1140AC3F10103CDF810A00893B7423D
:1043B0002FD2731E0593079A16F8013C93420BD037
:1043C000BBF1200F16D1049BC3F8009004334FF0CB
:1043D00000090493CB460DE0059B089A13449F42C5
:1043E000EED81846019A03990993FEF7D6FD099B6A
:1043F00068B1E5E716F8010CFFF70EFF00F00F00BB
:1044000000FA0BF0059B49EA00090BF1040B1E466C
:10441000CDE7049840F8049BCAEB000080102861A7
:104420004701484600F083FBD8F80060381AB042D4
:1044300026DD871B3946284600F07BFEC8B17B1E6F
:10444000591103F01F024FF001095AF8211009FA1F
:1044500002F20A420ED04B4502DC4FF0020909E09D
:10446000B91E284600F065FE0028F6D04FF003097B
:1044700000E0814639462846FFF798FE3C440CE0B0
:1044800009DA371A29463A46029800F085FC0546B3
:10449000E41B00F1140A4FF00009D8F808309C42E0
:1044A00008DD0298294600F0B2FA149A002313603E
:1044B000A320E2E0D8F80400844253DA041BA642A9
:1044C0002EDCD8F80C30022B1AD0032B1CD0012B79
:1044D0001DD1A6421BD1012E0BDCD8F80430069A60
:1044E0006220136001232B61CAF80030149B1D6009
:1044F000C3E0711E284600F01CFE0028EDD106E046
:10450000159B002BE9D002E0159B002BE5D102980A
:10451000294600F07CFA149A002313605020ACE086
:10452000671EB9F1000F06D13FB13946284600F0A9
:1045300000FE814601E04FF001097A11012307F0E6
:104540001F0703FA07F75AF8223021461F42284670
:1045500018BF49F00209361BFFF728FE0227D8F8DA
:10456000044000E00127B9F1000F00F08180D8F885
:104570000C30022B0ED0032B10D0012B76D119F06A
:10458000020F73D0DAF8000049EA000919F0010FB0
:1045900007D16BE0159BC3F101031593159B002B0D
:1045A00064D0D5F810A005F114034FEA8A0903EB93
:1045B000090100201A68B2F1FF3F02D001321A60EF
:1045C00020E043F8040B9942F4D8AB689A4512DB1B
:1045D00069680298013100F0E5F983462A6905F11E
:1045E0000C01023292000C30FEF766FC294602985C
:1045F00000F00DFA5D462B695A1C2A6105EB830316
:1046000001225A61022F05F1140211D1D8F80030AD
:10461000013B9E4227D17111012306F01F0603FAC8
:1046200006F652F821301E420CBF022701271AE07D
:104630002B699A450ADA01212846FFF7B7FDD8F819
:10464000083001349C423FF72CAF0BE016F01F06F8
:1046500008D0914459F8040C00F069FAC6F120061C
:10466000B042E8DB012747F0200701E047F01007E0
:104670003846149B1D60069B1C600BB0BDE8F08F94
:10468000C2F10802920070B5C2F1200643680568C5
:1046900003FA06F42C43D340046040F8043F8842F8
:1046A000F4D370BD30B5036811F8014B01334CB140
:1046B0001A78A2F14105192D98BF2032A242F3D0F9
:1046C000002030BD0360012030BD0B682DE9F04FA4
:1046D0005E1102EB860613F01F0318BF0436351F68
:1046E000174600228246A8462C46914685B0D0F84F
:1046F00000B0019346F8042C00921BF8011F00291A
:104700003CD0084603920291FFF786FD039A00BB56
:104710000299202916D8009B9945EEDD444505D223
:10472000072A03DC41462046FFF7AAFFBC4223D9F3
:104730000023A4F1040844F8043CCDF8009044465A
:104740001A46DAE7292948D10BF10103CAF80030EB
:1047500014E00132082A09F1010906DDBC42CCD976
:10476000002344F8043C0122043C216800F00F00BF
:1047700040EA01102060C0E70822BEE7B9F1000F4F
:104780002BD0444505D2072A03DC41462046FFF7DB
:1047900077FFBC420CD93B4654F8042BA54243F8A2
:1047A000042BF9D2002243F8042B9D42FBD20BE0EC
:1047B000019B4BB1C3F120024FF0FF33D34056F8B9
:1047C000042C134046F8043C2B6843B9BD4202D187
:1047D00001232B6003E0043DF6E7042000E0052000
:1047E00005B0BDE8F08F00002DE9F84F07468B4675
:1047F000904600F0D3FC194B1D689A463DB15C46CB
:10480000234613F8012B42B13D2A1C46F8D1384605
:1048100000F0C5FC0020BDE8F88FCBEB0404A946EE
:1048200059F8040B0028F2D022465946FEF7B5FB92
:1048300088B959F8043C1E191B5D3D2B0BD1DAF8E1
:1048400000303846ED1AAD10C8F8005000F0A7FC53
:10485000701CBDE8F88F4D46E1E700BF1001002055
:1048600007B501AAFFF7C0FF03B05DF804FB000025
:1048700000487047D00000200268464BF0B592FB1C
:10488000F3F403FB1422002ABCBF02F5A83202F5A0
:10489000C0724FF4616092FBF0F300FB13224FF003
:1048A0003C008B6092FBF0F300FB132204F52F24F5
:1048B000ACBF04F66C2404F66B244B600A6007233B
:1048C000E21C92FBF3F3344DC3EBC30394FBF5F509
:1048D000D31A48F6AC6240F2B4578B612F4B304884
:1048E00003FB0544B4FBF2F2B4FBF7F3B4FBF0F0C6
:1048F0002244D21A48F69466131A40F26D12B3FBA2
:10490000F6F6B3FBF2F0B3FBF7F33444E31A02FB21
:10491000103303EB830299240232B2FBF4F25443C6
:10492000A61C0524B6FBF4F40A2A34BF02266FF055
:10493000090616444FF4C87202FB05055F1C012EE0
:1049400098BF0135B3F5997FA7EB040702D3A3F510
:10495000997214E0820705D16424B0FBF4F204FBE1
:1049600012024AB94FF4C872B0FBF2F402FB140011
:10497000B0FA80F2520900E001223B331A44A5F25A
:104980006C750023CA614D610E61CF600B620846F1
:10499000F0BD00BF80510100B13A02004FC5FDFFDC
:1049A000B03A020070B5456A04460E463DB9102083
:1049B000FCF73CF86062456085600560C560656A2B
:1049C000EB6843B1636ADB6853F8260078B102688C
:1049D00043F8262017E021220421204600F0CBFBDB
:1049E000636AE860DB68002BECD1002070BD012118
:1049F00001FA06F56A1D9200204600F0BCFB002873
:104A0000F3D04660856000230361C36070BD70B55C
:104A1000446A06460D463CB91020FCF707F8706260
:104A2000446084600460C4603DB1736A6A68DB6896
:104A300053F82210296043F8225070BD2DE9F0414F
:104A400006460C460D691F4601F1140E0023DEF8E0
:104A50000000013381B202FB0171000C0F0C02FB5C
:104A6000007089B201EB00419D424FEA10474EF8B9
:104A7000041BECDCD7B1A3689D4212DB61683046B1
:104A80000131FFF78FFF8046226904F10C010232E9
:104A900092000C30FEF710FA21463046FFF7B7FFC0
:104AA000444604EB850301355F6125612046BDE87E
:104AB000F0812DE9F843064615461F4609220833C2
:104AC0000C4693FBF2F3002101229A4202DA5200D3
:104AD0000131FAE73046FFF765FF089B092D436176
:104AE0004FF00103036111DD04F10908C1462C44B4
:104AF00019F8013B0146303B0A223046FFF79EFF82
:104B0000A145F5D108EB0504083C01E00A3409256C
:104B10002D1B63199F4208DD14F8013B0146303B11
:104B20000A223046FFF78AFFF3E7BDE8F883030C5B
:104B30001B0413B90004102300E0002310F07F4F82
:104B400004BF0002083310F0704F04BF00010433AB
:104B500010F0404F04BF80000233002803DB420006
:104B600003D5581C704718467047202070470368CB
:104B700013F007020BD0D90722D49A074BBF5B086A
:104B80009B08036003604CBF01200220704799B26C
:104B900009B91B0C102213F0FF0F04BF1B0A0832C7
:104BA000190704BF1B090432990704BF9B0802328E
:104BB000D90702D45B0805D0013203601046704764
:104BC000002070472020704710B50C460121FFF7E8
:104BD000E9FE01224461026110BD2DE9F74F144640
:104BE0000A69236988469A42BEBF0B46A0461C4606
:104BF000D8F81070D4F81090D8F80830D8F804100D
:104C000007EB09069E42C8BF0131FFF7CBFE00F15A
:104C100014052B4605EB860C0022634502D243F8AF
:104C2000042BFAE704F1140208F1140102EB8903E2
:104C300001EB87070093009B0192934257D9B2F88A
:104C400000B0BBF1000F23D08946AE464FF00008FC
:104C500059F8044BBEF800A0A3B20BFB03A34FEA24
:104C6000144ADEF8004043444FEA14480BFB0A8420
:104C7000F24604EB13449BB243EA04434F454FEA28
:104C800014484AF8043B01D9D646E1E7CEF804803F
:104C9000019B0432B3F802A0BAF1000F21D02C46D8
:104CA00089462B684FF00008B9F800E0B4F802B06C
:104CB0009BB20AFB0EBEA346F04443EA08434BF8FE
:104CC000043B59F8043BB4F804E01B0C0AFB03E373
:104CD0004F4503EB18434FEA134801D95C46E3E71D
:104CE00063600435A7E75CF8043D13B9013E002E6C
:104CF000F9DC066103B0BDE8F08F00002DE9F84350
:104D0000154612F0030206460F4607D0214C013A21
:104D1000002354F82220FFF791FE0746AD1036D04D
:104D2000746A3CB91020FBF781FE706244608460B5
:104D30000460C460D6F82480D8F808404CB940F22A
:104D400071213046FFF740FF04460023C8F80800F1
:104D500003604FF00008EB070AD53946224630467B
:104D6000FFF73BFF814639463046FFF750FE4F467E
:104D70006D100CD0206808B10446ECE722462146AD
:104D80003046FFF72AFF2060C0F80080F4E738467D
:104D9000BDE8F883F8570A082DE9F0470C460746A6
:104DA000914626694FEA621A56444968A368751C01
:104DB000AB4202DA01315B00FAE73846FFF7F2FD59
:104DC000002380461A4600F11401534503DA41F8E6
:104DD00023200133F9E72AEAEA73206901EB830310
:104DE00019F01F0904F1140101EB800E14D0C9F170
:104DF000200C002208689A4600FA09F0024343F8A2
:104E0000042B51F8042B8E4522FA0CF2F2D8CAF882
:104E1000042042B1B51C06E0043B51F8042B8E453A
:104E200043F8042FF9D8013D3846C8F81050214600
:104E3000FFF7EDFD4046BDE8F08703690A6910B54C
:104E40009B1A11D192001430143183180A4453F87C
:104E5000044D52F8041D8C4202D007D3012010BD2E
:104E60009842F4D3002010BD184610BD4FF0FF301B
:104E700010BD2DE9F8430C4607461146204615465D
:104E8000FFF7DBFF061E08D131463846FFF78AFDE3
:104E9000012303614661BDE8F883BCBF23462C466D
:104EA00038466168BABF1D4601260026FFF77AFD25
:104EB0002B69C660266905F1140904F1140101EBA0
:104EC000860709EB830800F114054FF0000C51F838
:104ED000042B59F8044B93B29C44A3B2240CC3EBAB
:104EE0000C03C4EB124202EB23429BB24FEA224C6A
:104EF000C84543EA02428E4645F8042BE7D8BE4532
:104F00000ED25EF8041B8AB26244131403EB114301
:104F100092B242EA03424FEA234C45F8042BEEE7F3
:104F200055F8043D0BB9013EFAE70661BDE8F88388
:104F3000104B0B40A3F15073002B02DD00201946EB
:104F400070475B421B15132B4FF000004FF0000120
:104F500004DC4FF4002242FA03F17047143B1E2B8D
:104F60004FF00102CEBF1346C3F11F0302FA03F351
:104F7000184670470000F07FF8B5056900F1140687
:104F800006EB850555F8044C2F1F2046FFF7CFFD93
:104F9000C0F120030A280B6014DCC0F10B0E24FAC8
:104FA0000EF1BE4241F07F5334BF55F8081C00217A
:104FB000153004FA00F021FA0EF143F4401340EAF0
:104FC000010223E0BE423ABFA5F1080755F8081CCC
:104FD00000210B3815D08440C0F1200544F07F54E7
:104FE00044F44014B74221FA05FE44EA0E038CBF94
:104FF00057F8044C002401FA00F0EC4040EA0402A7
:1050000004E00A4644F07F5343F440131046194627
:10501000F8BD2DE9F3411C4601219046089E099DEB
:10502000FFF7C0FCC4F31302C4F30A5407460CB1E3
:1050300042F480120192B8F1000F19D002A840F892
:10504000088DFFF794FD009B48B1019AC0F1200143
:1050500002FA01F10B43C2407B61019200E07B61E7
:10506000019B002B14BF02210121BB61396107E0C4
:1050700001A8FFF77CFD019B01217B613961203094
:1050800034B1A4F2334404443460C0F1350009E083
:10509000A0F2324007EB810330601869FFF747FD4B
:1050A000C0EB41102860384602B0BDE8F0812DE920
:1050B000F743884669468146FFF75EFF0D46044682
:1050C00001A94046FFF758FF0F460646D9F81030B1
:1050D000D8F8102020469A1A9DE80A00C91A01EB58
:1050E0004213002BCCBF05EB0355A7EB0357324609
:1050F0003B462946FDF734FA03B0BDE8F083013999
:1051000010B549111469013102F1140300EB81015A
:1051100003EB8404A342024604D253F8042B40F864
:10512000042BF7E700238A4202D242F8043BFAE755
:1051300010BD00F1140200694B11984210B50CDB50
:105140000CDD11F01F0109D052F8234024FA01F0C0
:1051500000FA01F18C420CD100E0034602EB83031C
:10516000934204D953F8041D0029F9D001E000202E
:1051700010BD012010BD38B502FB01F42146FBF73C
:1051800085FC054618B122460021FDF7A0FE284601
:1051900038BD0000004870470000C07F704770476E
:1051A00021000A0861000A088D000A0891000A0817
:1051B0000000000025342E3166206D416800253343
:1051C0002E3166202525005365742D43617061637F
:1051D000697479005365742D436861726765005284
:1051E000657365742D54657374004C5443343135C4
:1051F0003020436F756C6F6D6220436F756E746500
:1052000072005374617274757000537461747573B5
:105210003A2025342E3066206D41682C2025332E0F
:1052200031662525206368617267652C2025342E40
:105230003366206D412061742074696D6520256995
:105240003A25693A25693A2569207365636F6E646A
:105250007300537461747573000000000000000057
:1052600000000000CB0A0A08D10A0A08270B0A0826
:10527000DF0A0A08CD0A0A0800000000000000004A
:10528000ED100A0837110A080F110A08EF100A0872
:1052900017110A081F110A0827110A082F110A08F6
:1052A0000000000000000000D1110A08C1110A0826
:1052B000C3110A086C6E00666E00636F646500645B
:1052C000657461696C000D0A00253031307520006D
:1052D0005D20002564002C200028293A2000205B56
:1052E00000636F6465203D2000256900646574617A
:1052F000696C73203D2000626175640053657269BA
:10530000616C0055534253657269616C3100747968
:10531000706500706172616D00636D6400696400A6
:10532000686E64007374726D0066696C74006C76EC
:105330006C0061646448616E646C65720072656DD6
:105340006F766548616E646C657200656E756D4858
:10535000616E646C657273004A534F4E537472658C
:10536000616D4C6F6748616E646C6572006170704E
:10537000006E6F6E6500747261636500696E666FC2
:10538000007761726E006572726F720070616E6993
:105390006300616C6C000000000000000000000071
:1053A00099120A08A3120A08AD120A08B7120A08CD
:1053B000C1120A08CD120A08D9120A08E5120A0811
:1053C000ED120A08F7120A0801130A08000000008B
:1053D0000000000039140A083B140A08252B30335A
:1053E000643A253032750025592D256D2D256454DC
:1053F00025483A254D3A2553257A0061736374692F
:105400006D6500000000000000000000C1160A08E1
:1054100011170A081F170A0865130A08D5160A0883
:10542000F7160A08E3160A080B170A08C3160A0833
:10543000C7160A080000000000000000C9170A088B
:1054400019180A0827180A0865130A0805180A080F
:10545000CB170A08E1170A0813180A08F7170A08F1
:10546000C5170A080000000000000000031A0A081F
:10547000F9190A08EF190A0861190A08E3190A0854
:10548000D7190A08CB190A08C3190A08B9190A0852
:10549000AF190A086B190A080020202020202020BC
:1054A00020202828282828202020202020202020D4
:1054B00020202020202020202088101010101010E4
:1054C0001010101010101010100404040404040430
:1054D00004040410101010101010414141414141CA
:1054E00001010101010101010101010101010101AC
:1054F00001010101101010101010424242424242BC
:10550000020202020202020202020202020202027B
:105510000202020210101010200000000000000023
:10552000000000000000000000000000000000007B
:10553000000000000000000000000000000000006B
:10554000000000000000000000000000000000005B
:10555000000000000000000000000000000000004B
:10556000000000000000000000000000000000003B
:10557000000000000000000000000000000000002B
:10558000000000000000000000000000000000001B
:10559000000000000000000000000000000000000B
:1055A00000000000000000000000000000000000FB
:1055B00000000000000000000000000000000000EB
:1055C00000000000000000000000000000000000DB
:1055D00000000000000000000000000000000000CB
:1055E00000000000000000000000000000000000BB
:1055F0000000000000000000000000004300504FC9
:10560000534958002E0000001F0000001C0000003D
:105610001F0000001E0000001F0000001E00000010
:105620001F0000001F0000001E0000001F000000FF
:105630001E0000001F0000001F0000001D000000F1
:105640001F0000001E0000001F0000001E000000E0
:105650001F0000001F0000001E0000001F000000CF
:105660001E0000001F00000035000000CEFBFFFF01
:10567000CB03000001000000000000006E6600691E
:105680006E69747900616E0034000000CEFBFFFF8C
:10569000CB0300000100000000000000000000003B
:1056A000BC89D897B2D29C3C33A7A8D523F64939F8
:1056B0003DA7F444FD0FA5329D978CCF08BA5B251A
:1056C000436FAC6428066811545A00474D540025B6
:1056D00031305B5E302D392C2B2D5D256E004D2534
:1056E0006875256E2E256875256E2E256875256EC4
:1056F000002F256875256E3A256875256E3A256850
:1057000075256E0000000000000000000000F03F62
:10571000000000000000244000000000000059408C
:105720000000000000408F40000000000088C340DF
:1057300000000000006AF8400000000080842E4154
:1057400000000000D01263410000000084D79741A0
:105750000000000065CDCD41000000205FA00242A6
:10576000000000E876483742000000A2941A6D421B
:10577000000040E59C30A2420000901EC4BCD6420E
:1057800000003426F56B0C430080E03779C34143B9
:1057900000A0D8855734764300C84E676DC1AB432F
:1057A000003D9160E458E143408CB5781DAF15444D
:1057B00050EFE2D6E41A4B4492D54D06CFF0804428
:1057C000F64AE1C7022DB544B49DD9794378EA443D
:1057D0000080E03779C34143176E05B5B5B89346ED
:1057E000F5F93FE9034F384D321D30F94877825AB9
:1057F0003CBF737FDD4F15750500000019000000E8
:105800007D00000001060A0889120A0851130A08DF
:105810001D140A0885150A08AD160A080D1A0A088B
:10582000851C0A08B51C0A080D1D0A08D11D0A08A6
:10583000551E0A08D91E0A080000000000000000DA
:045840000000000064
:105844004E410000000000000000000000000000C5
:105854001BC62E3E4E410000000000000000000068
:1058640000000000FB530A0898540A0800000000D6
:105874009C550A08BC550A08DC550A0800000000BB
:10588400000000000000000000000000FC550A08B1
:105894000000000000000000000000000000000004
:1058A40000000000000000000000000000000000F4
:1058B40000000000000000000000000000000000E4
:1058C4000000000000000000000000002C00002088
:1058D40004560A08C8520A08C8520A08C8520A08D4
:1058E400C8520A08C8520A08C8520A08C8520A0804
:1058F400C8520A08C8520A08FFFFFFFFFFFFFFFF54
:10590400FFFFFFFFFFFF0000CB560A08CB560A0833
:1059140001000000000000004A0000000000000038
:105924000000000000000000000000000000000073
:10593400000000004A000000000000000000000019
:105944000000000000000000000000000000000053
:0459540030070020F8
:10595800FFFFFFFF00000102030405060708090A0C
:105968000B0C0D0E0F101112131415161718191A07
:085978001B1C1D1E1F2028004E
:04598000785634120F
:04000005080A0020C5
:00000001FF
