:02000002D0002C
:1040000000400D0090990D00000006000C00050115
:084010000401DE0500000000C0
:0440180048910D00BE
:1040200009480A49884208B505D0094A824202D0A7
:10403000121A02F009FF0748074A0021121A02F07B
:104040000EFF014808BD00BF20E2032054980D0078
:1040500034E3032034E30320F0E7032070B501F0DC
:104060007DFE074C074BE41AA40800251E46A54216
:1040700004D056F8253098470135F8E770BD00BFE9
:1040800044980D000C980D0000F0EAB808B500F057
:1040900001FABDE8084001F023BE00F005BD00F0C4
:1040A0000BBD00F009BD0078B0FA80F04009704700
:1040B000012303707047000070B5294C294D236817
:1040C0002B6000F0E5FA2060032001F0BFFE264BD4
:1040D0002649061E14BF012200221A70244B254ACD
:1040E000D3ED027A91ED007A0AD077EE877A92EDDD
:1040F000007AC3ED027AD3ED047A77EE877A09E08D
:1041000077EEC77A92ED007AC3ED027AD3ED047AA6
:1041100077EEC77AC3ED047A236828681B1A16481D
:10412000B3FBF0F002F0C8F90B4602460AA1D1E950
:10413000000102F061FB02F02DFD104B18602EB162
:10414000D3ED007AF1EE677AC3ED007A0C4B0122D1
:104150001A7070BDAFF30080333333333333834091
:104160003CE3032064E3032038E3032040E2032020
:1041700040E3032060E3032040420F005CE30320A0
:1041800068E3032013B5154901F07BFB18B3144C09
:1041900001F033FC6368A360E3682361206001F0F1
:1041A00069FE14222146002000F09AFAA06802F06D
:1041B000A5F90C4ACDE9000110210B4800F094FC50
:1041C000206902F09BF9094ACDE900011021084855
:1041D00000F08AFC012002B010BD00BFA2920D00C9
:1041E00040E303205C910D0020E2032066910D0066
:1041F00030E2032010B5074C00F052FA2368C01AD1
:10420000B0F57A7F04D300F04BFA2060012010BD96
:10421000002010BD54E3032008B5FFF7EBFF18B1F1
:10422000BDE80840FFF7E6BF00F0C6FBF5E738B58C
:10423000046805467CB16368013B63605BB9236831
:1042400020469B689847A368013BA3601BB923687D
:104250002046DB689847284638BD00000000000073
:104260001FB50021022001F0C7FD0021032001F04D
:10427000C3FD0121072001F0BFFD0021072001F04F
:10428000CCFD454A4549464800F0E7FC454A4649C9
:10429000434800F0E2FC454A4549414800F0DDFC56
:1042A000002304224349444800F076FB0023042203
:1042B0004249434800F070FB002302220093414929
:1042C0004FF0FF33104600F0EDFF00F07DFB0028BB
:1042D0005BD03D4C00F078FB01F0CCFD1422214670
:1042E000002000F0F5F901F088FB2368C01AB0F552
:1042F000967F0DD901F081FB6368A360E3682060BD
:10430000236101F0B7FD14222146002000F0E8F9F6
:10431000606802F0F3F800222C4B02F06DFA1CA347
:10432000D3E9002302F03EF90022294B02F064FA9F
:1043300002460B460020274902F05EFA02F02AFCF2
:10434000254B1860A06802F0D9F8244ACDE9000195
:104350001021184800F0C8FB206902F0CFF8204A6D
:10436000CDE900011021154800F0BEFB1D4B1E4A8F
:104370001B788DF800301D493C2302A800F08EFD0B
:1043800003A8FFF754FF04B010BD00F015FB9CE735
:104390000000000000E3B6406F910D0011450D00D4
:1043A0002F4C0D007C910D0099450D0087910D005B
:1043B00085410D0020E2032073910D0030E20320BF
:1043C00080910D00B9400D0040E3032000408F4074
:1043D000000059400000F03F60E303205C910D00B5
:1043E00066910D0058E3032092910D00AA910D00F3
:1043F0002DE9F047A4B001F000FB214B1C689E683A
:104400001F69204B041B2046D3F8008001F0CCFA32
:104410000546204601F0B0FA8146204601F0B4FA84
:104420008246204601F0B8FA013D09904046CDF899
:1044300020A0CDF81C90069502F060F8CDE90401AB
:10444000384602F05BF8CDE90201304602F056F83A
:104450000D4ACDE9000160210CA800F045FB0B4B93
:104460000B491B788DF800300CAA3C230AA800F0F9
:1044700015FD0BA8FFF7DBFE24B0BDE8F08700BFF9
:1044800040E303205CE30320B2910D0058E30320D6
:10449000FA910D0037B5184B1A7852B30025012157
:1044A00007201D70154C01F0B8FC642000F034FBAF
:1044B0002946072001F0B1FCFFF79AFF01F0DAFC72
:1044C00014222146284600F00BF9A06802F016F8E5
:1044D0000B4ACDE9000110210A4800F005FB2069D4
:1044E00002F00CF8084ACDE900011021074800F05D
:1044F000FBFA03B030BD00BF68E3032040E30320B4
:104500005C910D0020E2032066910D0030E2032053
:104510007FB503A9006803F03BFBB5EEC00AF1EEDE
:1045200010FA27D4DFED167AB4EEE70AF1EE10FAAE
:1045300020DC144B10EE100A83ED010A01F0DEFFBF
:10454000114ACDE900011021104800F0CDFA00F029
:104550003BFA88B1FFF760FE0D4B0C4A1B788DF8D3
:10456000003004A83C230B4900F098FC05A8FFF795
:104570005EFE01E0002000E0012007B05DF804FBD2
:104580000080BB4540E303205C910D0020E2032046
:1045900058E3032073910D007FB503A9006803F071
:1045A000F7FAB5EEC00AF1EE10FA27D4DFED167A6D
:1045B000B4EEE70AF1EE10FA20DC144B10EE100A0C
:1045C00083ED030A01F09AFF114ACDE900011021A1
:1045D000104800F089FA00F0F7F988B1FFF71CFEE7
:1045E0000D4B0C4A1B788DF8003004A83C230B4976
:1045F00000F054FC05A8FFF71AFE01E0002000E0DF
:10460000012007B05DF804FB0000C84240E303202E
:1046100066910D0030E2032058E3032080910D00E5
:10462000024B01221A7000F06BB800BF58E3032060
:1046300008B5024B1B689B68019308BD4802030044
:1046400008B5024B1B681B69019308BD48020300B3
:1046500008B5024B1B685B69019308BD4802030063
:1046600008B5024B1B685B6C019308BD4802030050
:1046700008B5024B1B689B6C019308BD4802030000
:1046800008B5024B1B685B68019308BD1802030064
:1046900008B5024B1B681B69019308BD1802030093
:1046A00008B5024B1B685B69019308BD1802030043
:1046B00008B5024B1B68DB69019308BD18020300B3
:1046C00008B5024B1B689B6A019308BD18020300E2
:1046D00008B5024B1B685B6C019308BD1802030010
:1046E00008B5024B1B689B6C019308BD18020300C0
:1046F00008B5024B1B689B6D019308BD18020300AF
:1047000008B5024B1B681B68019308BD2C0203000F
:1047100008B5024B1B689B68019308BD2C0203007F
:1047200008B5024B1B68DB68019308BD2C0203002F
:1047300008B5024B1B681B69019308BD2C020300DE
:1047400008B5024B1B685B69019308BD2C0203008E
:1047500008B5024B1B689B69019308BD2C0203003E
:1047600008B5024B1B68DB69019308BD2C020300EE
:1047700008B5024B1B681B6A019308BD28020300A1
:1047800008B5024B1B685B6A019308BD2802030051
:1047900008B5024B1B689B6A019308BD2802030001
:1047A00008B5024B1B68DB6A019308BD28020300B1
:1047B00008B5024B1B681B6B019308BD2802030060
:1047C00008B5024B1B685B6B019308BD2802030010
:1047D00008B5024B1B681B6C019308BD280203003F
:1047E00008B5024B1B685B69019308BD64020300B6
:1047F00008B5024B1B689B68019308BD6802030063
:1048000008B5024B1B68DB68019308BD6802030012
:1048100008B5024B1B68DB69019308BD3002030039
:1048200008B5024B1B681B6A019308BD30020300E8
:1048300008B5024B1B681B68019308BD3C020300CE
:1048400008B5024B1B68DB68019308BD3C020300FE
:1048500008B5024B1B681B69019308BD3C020300AD
:1048600008B5024B1B685B69019308BD3C0203005D
:1048700008B5024B1B689B69019308BD3C0203000D
:1048800008B5024B1B68DB69019308BD3C020300BD
:1048900008B5024B1B681B6A019308BD3C0203006C
:1048A00008B5024B1B689B6A019308BD3C020300DC
:1048B00008B5024B1B681B68019308BD4C0203003E
:1048C00008B5024B1B681B69019308BD4C0203002D
:1048D00008B5024B1B685B69019308BD4C020300DD
:1048E00008B5024B1B689B69019308BD4C0203008D
:1048F00008B5024B1B68DB69019308BD4C0203003D
:1049000008B5024B1B681B6A019308BD4C020300EB
:1049100008B5024B1B681B68019308BD2002030009
:1049200008B5024B1B685B68019308BD20020300B9
:1049300008B5024B1B685B69019308BD20020300A8
:1049400008B5024B1B68DB6C019308BD2002030015
:1049500008B5024B1B685B6D019308BD2002030084
:1049600008B5024B1B689B6D019308BD2002030034
:1049700008B5034B1B68D3F88830019308BD0000CD
:104980002002030008B5034B1B68D3F89430019351
:1049900008BD00002002030008B5024B1B681B681D
:1049A000019308BD4402030008B5024B1B685B6815
:1049B000019308BD4402030008B5024B1B689B68C5
:1049C000019308BD4402030008B5024B1B685B69F4
:1049D000019308BD4402030008B5024B1B681B6A23
:1049E000019308BD4402030008B5024B1B681B6B12
:1049F000019308BD4402030008B5024B1B68DB6B42
:104A0000019308BD4402030008B5024B1B685B68B4
:104A1000019308BD4002030008B5024B1B689B6868
:104A2000019308BD4002030008B5024B1B68DB6818
:104A3000019308BD4002030008B5024B1B681B69C7
:104A4000019308BD4002030008B5024B1B685B6977
:104A5000019308BD4002030008B5024B1B689B6927
:104A6000019308BD4002030008B5024B1B68DB69D7
:104A7000019308BD4002030008B5024B1B681B6A86
:104A8000019308BD4002030008B5024B1B681B6B75
:104A9000019308BD4002030008B5024B1B685B6B25
:104AA000019308BD4002030008B5024B1B681B6858
:104AB000019308BD1C02030008B5024B1B685B682C
:104AC000019308BD1C02030008B5024B1B689B68DC
:104AD000019308BD1C02030008B5024B1B689B69CB
:104AE000019308BD1C02030008B5024B1B68DB697B
:104AF000019308BD1C02030008B5024B1B68DB6A6A
:104B0000019308BD1C02030008B5024B1B681B6B18
:104B1000019308BD1C0203000021FFF709BF10B577
:104B2000836804460BB901F03AFAC3689847A36852
:104B30001BB1032221462046984720461021BDE89C
:104B4000104001F010BA10B50446006808B1FFF734
:104B50008FFD204610BD0B68036013B15A68013207
:104B60005A60704710B5064C002320462360FFF7BB
:104B700077FD2046034A0449BDE8104001F0EEB934
:104B80006CE3032034E30320474B0D007047002003
:104B9000704710B51021044601F0E5F9204610BD1C
:104BA00008B508B1FFF7F5FF08BD10B583680446E6
:104BB00013B1032201469847204610BD002202602F
:104BC00010B54FF69C728280B1F9044084808A80CF
:104BD00002680C6804600A6010BD10B504460068E5
:104BE000FFF76AFF204610BD38B5C468F4B12378DA
:104BF000022B03D104F10C00FFF7EFFF656835B11C
:104C00002846FFF7D2FF1021284601F0ACF9A5682D
:104C100035B12846FFF7C9FF1021284601F0A3F956
:104C200020461421BDE8384001F09DB938BD10B5CB
:104C300088B00446684600F0F7FD694604A800F015
:104C400015FE04A8A047044604A800F0A6FD684687
:104C500000F0A3FD204608B010BDF0B5102485B0CB
:104C600007460E46154600212246684602F0F7F830
:104C7000002269461046ADF8004002970396019560
:104C8000FFF792FE05B0F0BD13B5044691E80500AC
:104C900000234B600B602060626001A801930093C9
:104CA000FFF7C5FA204602B010BDF7B50C4602ADBD
:104CB00054F8043B45F8083D06460F4601A8214636
:104CC000FFF749FF29463046FFF7DEFF01A8FFF74F
:104CD000AEFA2046FFF7ABFA3846082101F043F957
:104CE000304603B0F0BD13B50B46044603C88DE84B
:104CF000030093E8030084E803009DE8030083E8D1
:104D0000030002B010BD000038B500230446036064
:104D100010200D46FFF7C1F928B1012343608360DD
:104D2000024B0360C5602060204638BD0C920D0028
:104D3000826810B50AB901F032F9C368BDE81040C5
:104D4000184708B5006800F11001FFF7F1FF08BD32
:104D5000826810B50AB901F022F9C368BDE81040B5
:104D6000184708B5006800F11001FFF7F1FF08BD12
:104D700038B5002383608B6804460D462BB10222B0
:104D80009847EB68E360AB68A360204638BD00003D
:104D9000F0B589B004686846FFF710FF00238DF86E
:104DA00008304FF00202D4E84F3F002B03D1C4E893
:104DB000412F0029F7D102D08DF8083063E014F1BB
:104DC0000C0503D069462846FFF7F8FEBFF35F8F56
:104DD00001236370002004F10803BFF35F8F53E8E1
:104DE000006F43E80002002AF9D1BFF35F8F002E65
:104DF00049D0FFF7A5FD20B129463046FFF798FFBF
:104E00003AE0314602A8FFF7B3FFE068B4F910506A
:104E100008B102F067F806901020ADF81C50FFF7BB
:104E20003CF90546E8B1002787601820FFF735F9FF
:104E3000044688B10146876002A8FFF754FF049B2F
:104E4000A268A360059B049206A9E268E36004F1EE
:104E500010000592FFF7B2FE0D4BEB600D4B2C607E
:104E6000AB6006A8FFF7B9FE02A8FFF79EFE00227E
:104E700029460948FFF76CFD3046FFF796FE1021E2
:104E8000304601F070F86846FFF7A7FE09B0F0BDA4
:104E9000434D0D00B94F0D001F4B0D002DE9F04F94
:104EA0008BB006460F46904699469DF850A0FFF7F6
:104EB0008BFD07AD834630BB4FF62E73059005A9D9
:104EC0002846ADF81830FFF779FE1420FFF7E5F813
:104ED000044658B10223037001234370C0F804B0A4
:104EE000C0F808B029460C30FFF768FE304621466E
:104EF00040F8044BFFF708FF2846FFF76EFE05A8B1
:104F0000FFF76BFE52E000240C2314206C60AC60B1
:104F10000793FFF7C2F8014618B10470447044606B
:104F2000846004A80391FFF7EFFE224B089308204A
:104F3000FFF7B3F8044628B1039B40F8043B04A9EB
:104F4000FFF709FE00955FFA8AF34A464146384664
:104F50000994FFF741FD20B9039B5B7803F0FF0242
:104F600083B1039B059304A906A8FFF7F4FD05A9E7
:104F70003046FFF789FE06A8FFF759F904A8FFF7A6
:104F800056F913E04FF69C7305A903A80592ADF8F6
:104F90001830FFF7FDFE05A8FFF71FFE05A80999C9
:104FA000FFF783FE06A8FFF742F9DAE730460BB0B9
:104FB000BDE8F08F29510D00022AF8B5044606D04D
:104FC000032A17D0012A22D10B6803601FE01820A2
:104FD0000E68FFF762F8054650B13146FFF7C8FE8C
:104FE0003069B6F9147008B101F07CFF2861AF8216
:104FF00025600CE0046854B104F11000FFF7EDFDEA
:105000002046FFF7D2FD1821204600F0ACFF00201B
:10501000F8BD38B5002383608B6804460D462BB17C
:1050200002229847EB68E360AB68A360204638BD76
:10503000022A70B5044606D0032A11D0012A18D1DD
:105040000B68036015E014200E68FFF726F805468C
:1050500020B13146FFF7DDFF337C2B74256008E07B
:10506000046834B12046FFF7A0FD1421204600F06B
:105070007AFF002070BD0000F0B5002387B00C4619
:10508000BFF35F8F50E8006F40E80032002AF9D18B
:10509000BFF35F8F002E3FD01846FFF751FC074645
:1050A00020B121463046FFF753FE2EE0314601A8DD
:1050B000FFF7AFFF23788DF814301020FEF7EDFFD7
:1050C0000546D0B187601420FEF7E7FF044678B1AB
:1050D0008760014601A8FFF706FE039BA268A36054
:1050E000049B0392E268E3609DF8143004922374F9
:1050F0000A4BEB600A4B2C60AB6001A8FFF755FD33
:10510000002229460748FFF723FC3046FFF74DFDF4
:105110001021304600F027FF07B0F0BD634D0D00B1
:1051200031500D001F4B0D0030B585B004460D46C3
:1051300068461146FFF7B9FD7CB124B228460DB18F
:1051400001F0D0FE029002A96846ADF80C40FFF7CE
:105150001FFE02A8FFF741FD1DE000988DF80840F2
:105160004FF00102D0E84F3FA34203D1C0E8412FE6
:105170000029F7D102D08DF808300CE010F10C01B5
:105180004FF0010318BF0373BFF35F8F043000F8C3
:10519000033CFFF771FF01A8FFF749F805B030BDE8
:1051A000002211464068FFF767BC002211464068A4
:1051B000FFF772BC00224068FFF766BC002281F056
:1051C00001014068FFF750BC00231A4619464068A9
:1051D000FFF742BC00231A4619464068FFF734BC6B
:1051E000002211464068FFF727BC002211464068A4
:1051F000FFF712BC002202214068FFF715BC002314
:105200001A464068FFF700BC024B03225A60024A6C
:105210001A60704770E3032028920D007047F8B5BC
:10522000064615460C468F18BC4206D0336814F863
:10523000011B9B6830469847F6E72846F8BD0022D8
:10524000007CFFF795BA0021007CFFF799BA002196
:10525000007CFFF79DBA0021007CFFF7A1BA002176
:10526000007CFFF7A5BA10B51421044600F07BFEC0
:10527000204610BD10B50446002363604FF47A73D6
:10528000A360044B2174084623601146FFF7A0FA7F
:10529000204610BD5C920D000021007CFFF790BA03
:1052A00000470000F0B585B01C460E46174605467F
:1052B000FFF756FA002084424FF0040303908DF864
:1052C0000C30A5BF9DF828308DF80E30034603AB97
:1052D000009332463B460649A8BF8DF80D4028464C
:1052E000FFF736FAB0FA80F0400905B0F0BD00BF14
:1052F000A1520D00704710B51821044600F033FE8E
:10530000204610BDF0B5037D062B8DB00E4600F192
:1053100004074FF0000402D000F1080518E00CADBE
:10532000394605F8304D2F232A460A20FFF758FA50
:10533000284601F0F2FD33680246DB682946304614
:1053400098470FE024B12E21304600F0D5F90444EF
:1053500015F8011D0A22304600F0D1F9BD4204447F
:10536000F0D120460DB0F0BD10B5054B044611221A
:1053700040F8043B002101F072FD204610BD00BF43
:1053800084920D000346074A10B543F8042B01F13F
:10539000100251F8044B43F8044B9142F9D10A78BA
:1053A0001A7010BD84920D0010B59DF8084044EAB3
:1053B000032343EA024242EA016104234160037588
:1053C00010BD37B50D788B784A78C9780091294699
:1053D000FFF7EAFF03B030BD014B024A1A60704785
:1053E00078E3032003930D00002211464068FFF785
:1053F00043BB002211464068FFF74EBB00224068C5
:10540000FFF742BB002281F001014068FFF72CBB8F
:1054100000231A4601214068FFF71EBB00231A46ED
:1054200019464068FFF710BB002211464068FFF79D
:1054300003BB002211464068FFF7EEBA00220221AA
:105440004068FFF7F1BA00231A464068FFF7DCBA5C
:1054500038B5054688B104684CB1A3681BB1032276
:105460002146204698471021204600F07CFD284622
:105470001421BDE8384000F076BD38BD10B1036896
:105480005B681847704710B503680446BBB158689D
:10549000FFF7CEF878B923685A7C12B95868FFF73D
:1054A000CFF823685868FFF7D3F8206800232360FB
:1054B00028B1FFF7CDFF206808B1FFF7C9FF2046EC
:1054C00010BD38B50446D0F8C40108B1FEF7E9FDB7
:1054D000D4F8C00108B1FFF7CBF8D4F8BC5135B10E
:1054E0002846FFF7D0FF0421284600F03CFD206845
:1054F00008B1FFF7C3FF204638BD000010B5044BCC
:10550000044640F8083BFFF7DCFF204610BD00BF13
:1055100078930D0038B50E4C0E4B23600025022306
:1055200004F5E4706360A560C4F8C451C4F8C851C0
:10553000FFF796F8084BC4F8CC5184F8D05123609B
:105540002046064A0649BDE8384000F007BD00BFC6
:105550007CE30320AC930D0078930D0034E303202B
:10556000FD540D0000231A464068FFF74DBA002293
:1055700002214068FFF758BA002211464068FFF741
:105580004BBA002211464068FFF756BA00231A466C
:1055900019464068FFF758BA00231A461946406872
:1055A000FFF75ABA002281F001014068FFF75CBAA8
:1055B00000224068FFF768BA002211464068FFF7F2
:1055C0006BBA002211464068FFF756BA2DE9F04346
:1055D000002495B016460D460746FFF7C5FE214646
:1055E00020220CA8009401F03AFC40230C932146A1
:1055F0006B460CAA3046FFF703F90446002844D155
:10560000024601216868FFF717FA02218046224608
:105610006868FFF711FA009E81462146002E34D0BB
:10562000002932D17368022B02D00A2B09D02AE05C
:10563000B8F1000F27D0716938460431FFF7C1FE79
:1056400020E0B9F1000F1ED07469112201A801F009
:1056500006FC06238DF8143001AD04F1080318345C
:10566000186859682A4603C20833A3421546F7D181
:1056700001A906A807ADFFF785FE0FCD3C1D0FC49D
:105680002B6823700121F669C8E70098FFF7B0F88E
:10569000384615B0BDE8F083024B034A1A60002279
:1056A0005A60704750E50320AC930D00F8B50646EC
:1056B0000D468F180024BD420CD0336815F8011B2D
:1056C0009B6830469847002801DB0444F3E7002C30
:1056D00008BF04462046F8BD70B505460C4608468E
:1056E00049B101F01AFC2B68024621462846DB68C6
:1056F000BDE87040184770BD03689B68184730B517
:105700008BB00B4600218DF82410012A98BF0A2285
:105710000DF12304B3FBF2F505FB123303F0FF0395
:10572000092B94BF30333733DBB2214604F80139FB
:105730002B46002DEED1FFF7CFFF0BB030BD10B5DB
:105740000446FFF732FA204610BD00000348044A21
:1057500004490023836000F001BC00BF58E503202A
:1057600034E303203F570D00704710B50C21044669
:1057700000F0F9FB204610BD10B5054B0360044650
:1057800001710846FFF744F80023A360204610BDCE
:10579000E0930D000079FFF743B810B504460068A8
:1057A000FFF78AF9204610BD10B50446006808B11D
:1057B000FFF782F900232360A360636010BD38B552
:1057C00004460D4600680131FFF77EF910B184E808
:1057D0002100012038BD10B50368044613B14368A9
:1057E0008B4207D22046FFF7EAFF20B1A3680BB92E
:1057F00022681370012010BD70B50E461146044694
:105800001546FFF7E8FF18B92046FFF7CDFF09E07E
:105810002A463146A560206801F016FB2268A3687D
:105820000021D154204670BD38B5002304460360E2
:105830004360836003730D4639B1084601F06DFB88
:10584000294602462046FFF7D7FF204638BD88424A
:1058500010B50B46044607D0096819B19A68FFF7DE
:10586000CBFF01E0FFF7A0FF204610BD10B50023DD
:1058700004460360436083600373FFF7E8FF20463C
:1058800010BD08B582680B4612B919B9012008BDD0
:1058900011B90368187802E0006801F011FBB0FA52
:1058A00080F0400908BD10B50446006818B1FFF744
:1058B00003F90023236010BD10B50446FFF7F3FF82
:1058C000204610BD10B5094C00204FF6FF73206034
:1058D000A080A07120816381FFF722F82046044A4E
:1058E0000449BDE8104000F039BB00BF68E5032063
:1058F00034E30320B9580D00F0B5144B144F1E6863
:10590000144B064418683B6806449E428BB01BD07B
:105910000AA801AD40F8286D01F09AF9436903F235
:105920006C73436104460FCC0FC50FCC0FC5D4F880
:1059300000E0C5F800E001AD0FCD074C0FC40FCD5E
:105940000FC43E60C4F800E00BB0F0BDA4E5032036
:10595000A0E503209CE5032074E5032008B50020A2
:10596000FFF742F828B1FFF72FF880F00100C0B22E
:1059700008BD012008BD000008B5FFF7BDFF014BC1
:10598000986808BD74E5032008B5FFF7B5FF014B23
:10599000586808BD74E5032008B5FFF7ADFF014B5B
:1059A000186808BD74E5032008B5FFF7A5FF014B93
:1059B000D86808BD74E5032010B50020FEF798FEF6
:1059C000044668B9FEF7A4FF01280BD12046FEF774
:1059D000C7FF38B9FFF7C2FF30B9FEF7EDFFF9E7AF
:1059E000012010BD002010BDFFF7B8FF0020FEF71A
:1059F0007FFE003018BF012010BD08B5FFF7DCFFA7
:105A0000BDE80840FEF754BE024B1A68024B1A600C
:105A1000704700BF44E2032098E5032070474174BB
:105A2000704708B5007CFEF73BFF20EAE07008BD38
:105A300008B5007CFEF70CFF20EAE07008BD08B551
:105A4000007CFEF715FF30EA200028BF4FF0FF3042
:105A500008BD08B5007CFEF703FF30EA200028BF30
:105A60004FF0FF3008BD007CFEF70ABF10B51421CF
:105A7000044600F078FA204610BD70B5457C044617
:105A80000E4625B9007CFEF70BFF002805DD3146E8
:105A9000207CBDE87040FEF7D3BE284670BD0000F4
:105AA00010B5044608461146002262604FF47A722F
:105AB000A260054A22600122207462741A46FEF731
:105AC000B7FE204610BD00BF18940D00007CFEF705
:105AD000DFBE000038B50C4D296811F0010411D16A
:105AE0002846FEF7E0FA68B1084A094B0948214602
:105AF000FFF7D6FF2846FEF7DBFA074A07490548B5
:105B000000F02CFA034838BD40E6032044E60320A9
:105B1000BCE50320A8E5032034E303201D5A0D0053
:105B200041747047704708B50021007CFEF7D8FE2D
:105B300030EA200028BF4FF0FF3008BD08B5012132
:105B4000007CFEF7CDFE30EA200028BF4FF0FF308A
:105B500008BD08B5007CFEF7BBFE20EAE07008BD7A
:105B600008B5007CFEF7ACFE20EAE07008BD007CC2
:105B7000FEF7C6BE10B51421044600F0F4F9204625
:105B800010BD38B50446007C0D46FEF7A1FE002886
:105B900001DC607C28B12946207CFEF7A9FE20EAC2
:105BA000E07038BD10B50446002363604FF47A738B
:105BB000A360054B236001230846217463741146DA
:105BC000FEF776FE204610BD48940D0010B5142255
:105BD0000446002101F043F9204610BD30B50E4DBA
:105BE00087B001A8FFF7F2FF296811F0010410D176
:105BF0002846FEF758FA60B101AA21460748FFF788
:105C0000D1FF2846FEF754FA054A0649034800F03A
:105C1000A5F9024807B030BDC8E60320CCE6032052
:105C200034E30320255B0D00002211464068FEF797
:105C300003BF002211464068FEF71EBF0022114636
:105C40004068FEF729BF00224068FEF71DBF002212
:105C500081F001014068FEF707BF00231A4619468C
:105C60004068FEF7F9BE00231A4619464068FEF761
:105C7000EBBE002211464068FEF7CEBE0022022194
:105C80004068FEF7D1BE00231A464068FEF7BCBE4E
:105C9000024B04225A60024A1A607047E0E6032071
:105CA00078940D0008B50C4B33B1FFF797FF0368EC
:105CB0001B699847002809DC084B63B1FFF70AFF0E
:105CC00003681B699847002803DC08BDAFF3008018
:105CD000F2E7AFF3008008BD000000000000000004
:105CE00008B5FFF7DFFFFEF7DBFC014B186008BDCE
:105CF000F0E603200248034A0349121A01F0A4B84F
:105D000000F4032004F4032050980D0007B500238D
:105D100000931A466FF07701FEF734FE03B05DF88A
:105D200004FB000007B543880A2B08D0502B09D18B
:105D3000094B1B683BB103B05DF804EB1847FFF754
:105D4000E5FF06E0002300931A466FF07701FEF7A7
:105D500019FE03B05DF804FBE8E6032038B5104CEB
:105D6000104D2368AB42104B0CBF012200221A7069
:105D700002D0FFF7BFFF2560FEF782FC044601F06A
:105D800077F80A4B13B12046AFF300800021074893
:105D9000FEF732FE00210648BDE83840FEF7E8BDB8
:105DA00000F403201E1C279AECE6032000000000EC
:105DB000255D0D0010B5044600F0B0F8FFF7EAFCD1
:105DC00028B1A4F10B03022B01D8002010BD00F074
:105DD0007FF8FFF761FA08B1012CF6D9FFF77AFED8
:105DE000FFF774FE18B1A4F10903012BEDD9232CA0
:105DF0008CBF0020012010BD232838B504460D4675
:105E00000AD8FF2908D0FFF7D5FF28B12946204638
:105E1000BDE83840FEF77CBC38BD38B504460D46B9
:105E2000FEF77EFCFF2810D0062804D84D2323FA65
:105E300000F0C30709D42046FFF7BCFF28B129466C
:105E40002046BDE83840FEF773BC38BD10B50446A7
:105E5000FEF766FC0438C0B2012808D92046FFF7D7
:105E6000A9FF20B12046BDE81040FEF769BC002024
:105E700010BD000010B5074C2368DB0708D420468E
:105E8000FEF711F920B1FEF71BFC2046FEF710F9D2
:105E9000014810BDF4E60320F8E6032070B504467F
:105EA00014252A46094E002100F0D9FF258020251F
:105EB0003146A5602561284600F06FF831466060E4
:105EC000284600F06AF8E060204670BDA4940D00FA
:105ED00030B50E4D296811F0010487B013D1284662
:105EE000FEF7E1F878B101A8FFF7D8FF01AA214633
:105EF0000748FFF7BFF92846FEF7DAF8054A0649D2
:105F0000034800F02BF8024807B030BDFCE6032040
:105F100000E7032034E303201D520D0038B50B4D7C
:105F2000296811F001040FD12846FEF7BCF858B1DA
:105F300021460748FFF720FC2846FEF7B9F8054A36
:105F40000549034800F00AF8014838BD20E703205E
:105F500014E7032034E3032069570D000B46014684
:105F6000184600F067BEFEF79AB80000024B1868AA
:105F7000BFF35F8F704700BF24E7032010B50028F0
:105F800014BF044601242046FEF78EFD20B9FFF71A
:105F9000EDFF08B18047F6E710BDFFF7EFBF08B58A
:105FA000FEF7AAFD244B1A68D0075CBF01221A60D5
:105FB000224B1A68D1075CBF01221A60204B1A6875
:105FC000D2075CBF01221A601E4B1A68D0075CBF63
:105FD00001221A601C4B1A68D1075CBF01221A60AB
:105FE0001A4B1A68D2075CBF01221A60184B1A6854
:105FF000D0075CBF01221A60164B1A68D1075CBF3C
:1060000001221A60144B1A68D2075CBF01221A6081
:10601000124B1A68D0075CBF01221A60104B1A6835
:10602000D1075CBF01221A600E4B1A68D2075CBF11
:1060300001221A60704700BF54E7032050E7032095
:106040004CE7032048E7032044E7032040E7032010
:106050003CE7032038E7032034E7032030E7032040
:106060002CE7032028E70320184B1A68D1075CBFF0
:1060700001221A60164B1A68D2075CBF01221A600F
:10608000144B1A68D0075CBF01221A60124B1A68C1
:10609000D1075CBF01221A60104B1A68D2075CBF9F
:1060A00001221A600E4B1A68D0075CBF01221A60E9
:1060B0000C4B1A68D1075CBF01221A600A4B1A68A0
:1060C000D2075CBF01221A60704700BF74E703204B
:1060D00070E703206CE7032068E7032064E70320F0
:1060E00060E703205CE7032058E70320184B1A6899
:1060F000D1075CBF01221A60164B1A68D2075CBF39
:1061000001221A60144B1A68D0075CBF01221A6082
:10611000124B1A68D1075CBF01221A60104B1A6833
:10612000D2075CBF01221A600E4B1A68D0075CBF11
:1061300001221A600C4B1A68D1075CBF01221A6059
:106140000A4B1A68D2075CBF01221A60704700BF71
:1061500094E7032090E703208CE7032088E70320DF
:1061600084E7032080E703207CE7032078E703200F
:10617000244B1A68D0075CBF01221A60224B1A68B0
:10618000D1075CBF01221A60204B1A68D2075CBF9E
:1061900001221A601E4B1A68D0075CBF01221A60E8
:1061A0001C4B1A68D1075CBF01221A601A4B1A688F
:1061B000D2075CBF01221A60184B1A68D0075CBF77
:1061C00001221A60164B1A68D1075CBF01221A60BF
:1061D000144B1A68D2075CBF01221A60124B1A686E
:1061E000D0075CBF01221A60104B1A68D1075CBF50
:1061F00001221A600E4B1A68D2075CBF01221A6096
:10620000704700BFC4E70320C0E70320BCE70320BA
:10621000B8E70320B4E70320B0E70320ACE703208E
:10622000A8E70320A4E70320A0E703209CE70320BE
:1062300098E7032081F0004102E000BF83F00043B3
:1062400030B54FEA41044FEA430594EA050F08BF11
:1062500090EA020F1FBF54EA000C55EA020C7FEAD5
:10626000645C7FEA655C00F0E2804FEA5454D4EB52
:106270005555B8BF6D420CDD2C4480EA020281EA1C
:10628000030382EA000083EA010180EA020281EA54
:106290000303362D88BF30BD11F0004F4FEA0131A6
:1062A0004FF4801C4CEA113102D0404261EB4101B5
:1062B00013F0004F4FEA03334CEA133302D052423B
:1062C00063EB430394EA050F00F0A780A4F10104F7
:1062D000D5F1200E0DDB02FA0EFC22FA05F2801831
:1062E00041F1000103FA0EF2801843FA05F3594117
:1062F0000EE0A5F120050EF1200E012A03FA0EFC96
:1063000028BF4CF0020C43FA05F3C01851EBE371BF
:1063100001F0004507D54FF0000EDCF1000C7EEBDC
:1063200000006EEB0101B1F5801F1BD3B1F5001F1A
:106330000CD349085FEA30004FEA3C0C04F1010439
:106340004FEA445212F5800F80F09A80BCF1004F62
:1063500008BF5FEA500C50F1000041EB045141EAE4
:10636000050130BD5FEA4C0C404141EB010111F4E5
:10637000801FA4F10104E9D191F0000F04BF014690
:106380000020B1FA81F308BF2033A3F10B03B3F16E
:1063900020020CDA0C3208DD02F1140CC2F10C02FE
:1063A00001FA0CF021FA02F10CE002F11402D8BF5C
:1063B000C2F1200C01FA02F120FA0CFCDCBF41EA28
:1063C0000C019040E41AA2BF01EB0451294330BDF7
:1063D0006FEA04041F3C1CDA0C340EDC04F11404D4
:1063E000C4F1200220FA04F001FA02F340EA0300AB
:1063F00021FA04F345EA030130BDC4F10C04C4F1F1
:10640000200220FA02F001FA04F340EA03002946D0
:1064100030BD21FA04F0294630BD94F0000F83F41A
:10642000801306BF81F480110134013D4EE77FEAFD
:10643000645C18BF7FEA655C29D094EA050F08BF49
:1064400090EA020F05D054EA000C04BF194610462A
:1064500030BD91EA030F1EBF0021002030BD5FEA6E
:10646000545C05D14000494128BF41F0004130BD96
:1064700014F580043CBF01F5801130BD01F00045EA
:1064800045F0FE4141F470014FF0000030BD7FEA5D
:10649000645C1ABF194610467FEA655C1CBF0B4658
:1064A000024650EA013406BF52EA033591EA030F6F
:1064B00041F4002130BD00BF90F0000F04BF002167
:1064C000704730B54FF4806404F132044FF000059A
:1064D0004FF0000150E700BF90F0000F04BF002113
:1064E000704730B54FF4806404F1320410F0004579
:1064F00048BF40424FF000013EE700BF42004FEA74
:10650000E2014FEA31014FEA02701FBF12F07F43F0
:1065100093F07F4F81F06051704792F0000F14BFED
:1065200093F07F4F704730B54FF4607401F0004531
:1065300021F0004120E700BF50EA010208BF704788
:1065400030B54FF000050AE050EA010208BF70477D
:1065500030B511F0004502D5404261EB41014FF4E6
:10656000806404F132045FEA915C3FF4DCAE4FF0EA
:1065700003025FEADC0C18BF03325FEADC0C18BFD1
:10658000033202EBDC02C2F1200300FA03FC20FA22
:1065900002F001FA03FE40EA0E0021FA02F114446F
:1065A000C1E600BF70B54FF0FF0C4CF4E06C1CEA84
:1065B00011541DBF1CEA135594EA0C0F95EA0C0FF9
:1065C00000F0DEF82C4481EA030621EA4C5123EA6C
:1065D0004C5350EA013518BF52EA033541F480119B
:1065E00043F4801338D0A0FB02CE4FF00005E1FB4E
:1065F00002E506F00042E0FB03E54FF00006E1FB98
:1066000003569CF0000F18BF4EF0010EA4F1FF04DA
:10661000B6F5007F64F5407404D25FEA4E0E6D411A
:1066200046EB060642EAC62141EA55514FEAC5202B
:1066300040EA5E504FEACE2EB4F1FD0C88BFBCF5A7
:10664000E06F1ED8BEF1004F08BF5FEA500E50F158
:10665000000041EB045170BD06F0004646EA01011E
:1066600040EA020081EA0301B4EB5C04C2BFD4EB50
:106670000C0541EA045170BD41F480114FF0000E49
:10668000013C00F3AB8014F1360FDEBF002001F0B7
:10669000004170BDC4F10004203C35DA0C341BDC31
:1066A00004F11404C4F1200500FA05F320FA04F003
:1066B00001FA05F240EA020001F0004221F0004137
:1066C00010EBD37021FA04F642EB06015EEA430EAA
:1066D00008BF20EAD37070BDC4F10C04C4F12005DA
:1066E00000FA04F320FA05F001FA04F240EA02008D
:1066F00001F0004110EBD37041F100015EEA430E5E
:1067000008BF20EAD37070BDC4F1200500FA05F27D
:106710004EEA020E20FA04F301FA05F243EA0203FC
:1067200021FA04F001F0004121FA04F220EA02000B
:1067300000EBD3705EEA430E08BF20EAD37070BD51
:1067400094F0000F0FD101F00046400041EB010131
:1067500011F4801F08BF013CF7D041EA060195F013
:10676000000F18BF704703F00046520043EB0303CD
:1067700013F4801F08BF013DF7D043EA06037047BA
:1067800094EA0C0F0CEA135518BF95EA0C0F0CD0C5
:1067900050EA410618BF52EA4306D1D181EA03010B
:1067A00001F000414FF0000070BD50EA410606BF05
:1067B0001046194652EA430619D094EA0C0F02D14A
:1067C00050EA013613D195EA0C0F05D152EA03368F
:1067D0001CBF104619460AD181EA030101F00041AD
:1067E00041F0FE4141F470014FF0000070BD41F0F6
:1067F000FE4141F4780170BD70B54FF0FF0C4CF4D0
:10680000E06C1CEA11541DBF1CEA135594EA0C0FEE
:1068100095EA0C0F00F0A7F8A4EB050481EA030E3B
:1068200052EA03354FEA013100F088804FEA033322
:106830004FF0805545EA131343EA12634FEA0222F0
:1068400045EA111545EA10654FEA00260EF00041B1
:106850009D4208BF964244F1FD0404F5407402D203
:106860005B084FEA3202B61A65EB03055B084FEA94
:1068700032024FF480104FF4002CB6EB020E75EB91
:10688000030E22BFB61A754640EA0C005B084FEAB9
:106890003202B6EB020E75EB030E22BFB61A754636
:1068A00040EA5C005B084FEA3202B6EB020E75EB81
:1068B000030E22BFB61A754640EA9C005B084FEAF9
:1068C0003202B6EB020E75EB030E22BFB61A754606
:1068D00040EADC0055EA060E18D04FEA051545EAF5
:1068E00016754FEA06164FEAC30343EA52734FEA9E
:1068F000C2025FEA1C1CC0D111F4801F0BD141EA17
:1069000000014FF000004FF0004CB6E711F4801F7B
:1069100004BF01430020B4F1FD0C88BFBCF5E06F5B
:106920003FF6AFAEB5EB030C04BFB6EB020C5FEA6B
:10693000500C50F1000041EB045170BD0EF0004EC0
:106940004EEA113114EB5C04C2BFD4EB0C0541EAF2
:10695000045170BD41F480114FF0000E013C90E6EF
:1069600045EA060E8DE60CEA135594EA0C0F08BFB3
:1069700095EA0C0F3FF43BAF94EA0C0F0AD150EAB2
:1069800001347FF434AF95EA0C0F7FF425AF104645
:1069900019462CE795EA0C0F06D152EA03353FF46D
:1069A000FDAE1046194622E750EA410618BF52EAEA
:1069B00043067FF4C5AE50EA41047FF40DAF52EABE
:1069C00043057FF4EBAE12E74FF0FF3C06E000BF5B
:1069D0004FF0010C02E000BF4FF0010C4DF804CD68
:1069E0004FEA410C7FEA6C5C4FEA430C18BF7FEA28
:1069F0006C5C1BD001B050EA410C0CBF52EA430C56
:106A000091EA030F02BF90EA020F0020704710F1D5
:106A1000000F91EA030F58BF994208BF90422CBF64
:106A2000D8176FEAE37040F0010070474FEA410C5D
:106A30007FEA6C5C02D150EA013C07D14FEA430C7B
:106A40007FEA6C5CD6D152EA033CD3D05DF8040BEC
:106A5000704700BF8446104662468C46194663461E
:106A600000E000BF01B5FFF7B7FF002848BF10F1F5
:106A7000000F01BD4DF808EDFFF7F4FF0CBF01203A
:106A800000205DF808FB00BF4DF808EDFFF7EAFFB6
:106A900034BF012000205DF808FB00BF4DF808ED71
:106AA000FFF7E0FF94BF012000205DF808FB00BF66
:106AB0004DF808EDFFF7CEFF94BF012000205DF8F0
:106AC00008FB00BF4DF808EDFFF7C4FF34BF0120FD
:106AD00000205DF808FB00BF4FEA410C7FEA6C5CC8
:106AE00002D150EA013C0AD14FEA430C7FEA6C5CC8
:106AF00002D152EA033C02D14FF0000070474FF040
:106B0000010070474FEA410212F5001215D211D56B
:106B10006FF47873B3EB625212D94FEAC12343F09A
:106B2000004343EA505311F0004F23FA02F018BF1C
:106B3000404270474FF00000704750EA013005D1E5
:106B400011F0004008BF6FF0004070474FF00000A8
:106B5000704700BF4A0011D212F5001211D20DD5B4
:106B60006FF47873B3EB62520ED44FEAC12343F053
:106B7000004343EA505323FA02F070474FF00000FD
:106B8000704750EA013002D14FF0FF3070474FF0AC
:106B9000000070474FEA4102B2F1E04324BFB3F571
:106BA000001CDCF1FE5C0DD901F0004C4FEAC00284
:106BB0004CEA5070B2F1004F40EB830008BF20F068
:106BC0000100704711F0804F21D113F13872BCBF22
:106BD00001F00040704741F480114FEA5252C2F177
:106BE0001802C2F1200C10FA0CF320FA02F018BFC0
:106BF00040F001004FEAC1234FEAD32303FA0CFC13
:106C000040EA0C0023FA02F34FEA4303CCE77FEAA1
:106C1000625307D150EA01331EBF4FF0FE4040F4EB
:106C20004000704701F0004040F0FE4040F400009A
:106C3000704700BF10B5054C13462CB10A460146FB
:106C40000220AFF3008010BD204610BD0000000000
:106C500038B5074B1C68E36B05461BB92420FDF7CC
:106C600023FFE063E16B2846BDE8384000F002B83E
:106C7000ACE203202DE9F0410C46804601F0C2FD54
:106C800021460746404601F0C1FD466906F26C7692
:106C9000B307044605D1642296FBF2F302FB1363AB
:106CA0004BB94FF4C87596FBF5F305FB1365B5FAC0
:106CB00085F35B0900E001235F4A302505FB0325CE
:106CC00001F0B6F801F0B6F85C4B1B68F3B17B68D5
:106CD0009E4205D13968D8F80030FA6941B90AE016
:106CE000304600F0FDFF0028F4D14FF0FF330DE0F7
:106CF000934208DB01E0934207DABA6B9342ACBFE0
:106D00000023012302E0002300E001232362236A21
:106D1000012B0CBFF96B396A4FF461633C2091FB86
:106D2000F3F603FB1613616893FBF0F200FB1230DD
:106D30002368891AA26861601B1A921B3B2B23608F
:106D4000A26003DD013161603C3B04E0002B03DA0B
:106D5000013961603C33236063683B2B03DD013202
:106D6000A2603C3B04E0002B03DA013AA2603C3312
:106D70006360A368172B22DDE2690132E261A26938
:106D80000132062AC8BF0022A261E268183B013224
:106D9000A3602369E26055F823108A4246DD01337F
:106DA0000C2B0CBF63692361A2EB0102E26001BFFF
:106DB000013300222261636108BFE26136E0002BEB
:106DC00034DAE269013AE261A269013A48BF062277
:106DD000A261E2681833013AE260A36032BB236922
:106DE000013B01D423611DE00B23236163695A1E1B
:106DF00012F0030F626103F26B7305D1642193FB00
:106E0000F1F201FB12324AB94FF4C87193FBF1F26F
:106E100001FB1233B3FA83F35B0900E0012303F5AE
:106E2000B673E361236955F82330E36001F001F89C
:106E30002046BDE8F08100BF14960D00E4E7032072
:106E400000487047B0E2032010B5431E0A44914247
:106E500004D011F8014B03F8014FF8E710BD0244CC
:106E60000346934202D003F8011BFAE77047000083
:106E700038B5124B1C68A36B0546D3B91820FDF733
:106E800013FE43F20E33A06303804AF6CD334380F2
:106E900041F2342383804EF26D63C3804DF6EC6380
:106EA0000381052343810B23838101220023C0E951
:106EB0000423A36B00221D615A6138BDACE203209C
:106EC00010F8012B11F8013B012A28BF9A42F7D094
:106ED000D01A7047034611F8012B03F8012B002A42
:106EE000F9D17047024B0146186800F003B800BFA3
:106EF000ACE2032070B5064608460C4600F00DF8DB
:106F0000451C29463046FDF7FFFD064618B12A46C6
:106F10002146FFF799FF304670BD034613F8012B59
:106F2000002AFBD1181A0138704730B582B1451ECE
:106F3000013915F8013F11F8014FA34206D1EC4386
:106F40001444E04201D0002BF3D11C46181B30BD85
:106F5000104630BD70B504460D4645EC104B164644
:106F600001F0B2FF51EC100B7EB1C5F30A53C3F12F
:106F70006B03002B09DD1B0503F17F55002405F58C
:106F8000401522462B46FFF70DFB70BD00000000A8
:106F90002DE9F04F9DB0002302900C4613921893F8
:106FA0004FF0000A4FF0000B1791179B1A780D2A2B
:106FB00005D8092A13D2002A00F0AC8112E02B2A4E
:106FC00004D02D2A04D0202A0CD108E0002200E0B1
:106FD00001220C925A1C17925B782BB99AE101336B
:106FE0001793E2E700230C93179D2B78302B5CD18D
:106FF0006B78582B01D0782B4CD10C9B019318AB9C
:107000000093A94A029819AB17A901F0E4F810F00F
:107010000706044600F08785062E05D101350023BA
:1070200017950C9300F07FBD189A3AB135211AA834
:1070300002F037F81899029801F0B5FC062E22D814
:10704000DFE806F0040D08181D0D04004FF0000BDA
:10705000DA4618E0DDF868A0DDF86CB013E01B9BA1
:10706000199ADDF868A023F4801302F2334243EA50
:10707000025B08E0DFF834B24FF0000A03E06FF083
:10708000004B4FF0FF3A210740F14D854BF0004B8C
:1070900000F049BD179B5A1C17925B78302BF9D032
:1070A000002B00F04085012300E000234FF0000892
:1070B0000693179B0793CDF81480CDF810800A2211
:1070C000179D2E78A6F13003D9B209290ED804995C
:1070D0000829DDBF059902FB0133059302FB08383F
:1070E000049B0135013304931795E9E70298FFF7F4
:1070F000A7FE07680298FFF7A3FE0068FFF70DFFE1
:10710000394602462846FFF710FF074628B10020FF
:107110003346049D0246014657E00298FFF790FE71
:107120000068FFF7FAFE179B1A181792049A1B5C67
:10713000002A42D11046302B05D1179B5A1C1792BA
:1071400001305B78F7E7A3F13102082A43D8179A98
:107150000792024600200546303B00F1010126D08F
:107160000A4405EB000C29460A2661450ED0013180
:1071700001F1FF3EBEF1080F03DC059F7743059741
:10718000F3E71029D8BF06FB08F8EEE728440828E3
:1071900000F1010505DC05980A2101FB0033059388
:1071A00004E0102DDCBF0A2101FB08380021179BE9
:1071B000581C17905B78084602E0049D38463A4612
:1071C000A3F130010929C7D90121652B01D0452B35
:1071D00051D16DB904E0652B40F0B3840022012148
:1071E00028B9069B002B00F09580054600E000259D
:1071F000179C631C179363782B2B06D02D2B02D082
:107200000026039606E0012300E000230393A31C5D
:107210001793A378A3F13006092E2BD8302B04D175
:10722000179B5E1C17965B78F8E7A3F13106082ED2
:1072300021D8A3F1300E179B4FF00A0C1F46179B65
:107240005E1C17965B78A3F13009B9F1090F04D8D9
:107250000CFB0E3EAEF1300EF1E7F61B082E44F6A5
:107260001F6902DCF145A8BFF146039E2EB1C9F1AA
:10727000000902E017944FF00009002D53D10028B7
:1072800040F05184069A002A40F04D84002941D1F3
:107290004E2B20D002DC492B0AD03BE0692B07D0D3
:1072A0006E2B18D036E000BF74960D000000F07F02
:1072B000A84917A801F0C0F960B3179BA649013B84
:1072C00017A8179301F0B8F910B9179B013317935A
:1072D000DFF8A0B21AE0A14917A801F0ADF9C8B1D2
:1072E000179B1B78282B0FD11AAA9D4917A801F0CC
:1072F000B6F9052808D11B9BDDF868A043F0FF4BC9
:107300004BF4E00B00F00FBCDFF86CB24FF0000A5A
:1073100000F009BC139B1794002B00F00F8400238E
:107320000C9300F002BC049B0598002B08BF2B4671
:10733000102D2C46C2EB0909A8BF10240493FFF7B7
:10734000BBF8092C82468B4613DD864B03EBC40346
:1073500053E91223FFF726F9064640460F46FFF78A
:10736000ABF802460B4630463946FEF769FF8246C7
:107370008B460F2D36DCB9F1000F00F0D48324DDED
:10738000B9F1160F07DC774D05EBC90952465B468C
:10739000D9E9000114E0C5F12503994522DC714CBF
:1073A000C5F10F0504EBC501C5EB090552465B4667
:1073B000D1E9000104EBC504FFF7F4F8D4E9002398
:1073C000FFF7F0F882468B46ADE319F1160F09DBA3
:1073D000644DA5EBC909D9E9002350465946FFF78A
:1073E0000BFAEFE72C1B4C44002C57DD14F00F0177
:1073F0000AD05C4B03EBC10152465B46D1E9000168
:10740000FFF7D0F882468B4634F00F0400F0B880C6
:10741000B4F59A7F0BDD0024254605940494029A66
:10742000DFF850B1222313604FF0000A87E14E4E7F
:10743000002324115046594698463746012C0BDD4F
:10744000E20704D5D6E90023FFF7ACF8012308F1E1
:10745000010864100836F1E70BB182468B46ABF1A8
:10746000547B07EBC80752465B46D7E90001FFF79C
:1074700099F821F000438B460A461B0D3B491B053A
:107480008B428246C7D8A1F580118B4286BFDFF8B8
:10749000ECB04FF0FF3A02F1547B71E070D06442DF
:1074A00014F00F020AD02F4B03EBC203504659468B
:1074B000D3E90023FFF7A0F982468B4624115FD061
:1074C0001F2C04DD002425460594049430E114F0BB
:1074D000100F0CBF00236A23254E039350465946D4
:1074E0000023002C09DDE20704D5D6E90023FFF7CD
:1074F00059F8012364100836F3E70BB182468B4636
:10750000039BEBB1CBF30A53C3F16B03002B59463A
:1075100016DD1F2B0EDD342BDEBF203B4FF0FF327C
:1075200002FA03F34FF0000ACCBF4FF05C7B03EA92
:10753000010B05E04FF0FF3202FA03F303EA0A0AF7
:107540000022002350465946FFF794FA0028B9D18B
:1075500018E000BF9C960D009F960D00A5960D00AB
:1075600088960D0010970D00D8970D000000A07CA4
:10757000A8960D000000F07F0000F8FFFFFFEF7FEE
:1075800000230393059B0093049A079902982B46C6
:1075900001F05BFA059000283FF43DAFB9F1000F10
:1075A000C9F10003A8BF00230D93002429EAE97361
:1075B00012932546059B0298596801F0BFF9049083
:1075C00000283FF42CAF059B1A69023203F10C012D
:1075D00092000C30FFF738FC1AAA19A94BEC10AB3B
:1075E0000298CDE908AB01F0E4FC189000283FF4C4
:1075F00016AF0121029801F0B3FA054600283FF4C6
:107600000EAF199B03991A9E002BADBF0D9A129ACB
:10761000DDF8348002EB0308B8BFD21AA3EB0103F4
:107620003344B549A8BF129A013B8B42C6F13606D6
:1076300080F28A80C91A1F29C8BFB04F4FF00109D4
:10764000D4BF09FA01F3FF1AA6EB0106D9BF0693CE
:10765000002709FA07F7CDF8189008EB0609039BF5
:10766000C84516441E444346A8BF4B46B342A8BF74
:107670003346002BC2BFC3EB0909F61AC3EB080857
:107680000D9B002B64D1B9F1000F7ADC129B002B0B
:1076900040F08180002E00F38880B8F1000F00F3E5
:1076A0008E80049A1899029801F0AFFB04460028D6
:1076B0003FF4B5AEC36807930023C360294601F0C9
:1076C00088FB002880F28980079B002B40F0048211
:1076D000BAF1000F40F00082CBF31303002B40F00F
:1076E000FB812BF000431B0D1B05B3F1D66F40F25D
:1076F000F3816369002B6CD021460122029801F0CE
:1077000017FB2946044601F064FB002840F3E4819E
:107710002BF00043039A1B0D1B05002A00F08C8000
:10772000B3F1D66F00F38880B3F15C7F00F3D681AC
:10773000029A22234FF0000A4FF0000B1360059BC2
:10774000002B40F0DC81EEE101230027069384E763
:1077500029461A46029801F09DFA054600283FF492
:107760005EAE0146189A029801F003FA07900028CD
:107770003FF455AE1899029801F015F9079B18933C
:1077800081E74A461899029801F0D2FA1890002829
:107790007FF47CAF43E6129A0499029801F07AFADA
:1077A000049000287FF476AF39E6324604990298B7
:1077B00001F0BEFA049000287FF46FAF2FE629464F
:1077C0004246029801F0B4FA054600287FF469AFFA
:1077D00025E62369012B8FDC7EE161D1079ACBF38B
:1077E000130322B346498B425A462ED1039B51467E
:1077F00063B1444B1340B3F1D46F07D81B0DC3F1F1
:107800006B034FF0FF3000FA03F301E04FF0FF335A
:107810008B421AD13C498A4202D101333FF4FFAD79
:10782000384B134003F5801B4FF0000A54E163B955
:10783000BAF1000F09D16BE7A3F580136FEA135B70
:107840006FEA0B5B4FF0FF3A46E117B117EA0B0FF7
:1078500002E0069B13EA0A0F00F03E81079B039AA1
:107860005046594653B1FFF775FB02460B46DDE91A
:107870000801FEF7E5FC82468B462DE1FFF76AFB27
:1078800002460B46DDE90801FEF7D8FC0022002382
:1078900082468B46FFF7EEF800287FF449AF1BE1E4
:1078A0002946204601F0D3FB57EC106B00224FF025
:1078B000804310EE100A3946FFF7F0F8002842D056
:1078C000079B23B14FF00008DFF8409011E0BAF1B8
:1078D000000F03D1CBF313033BB91BE0BAF1010F47
:1078E00003D1BBF1000F3FF423AFDFF824904FF03A
:1078F00000080026054F39E002FCFFFFE2FBFFFF16
:10790000FFFF0F000000F07FFFFFEF7F0000F03F60
:107910000000F0BF0022984B30463946FFF7B4F81C
:1079200040B9304639460022944BFEF73BFE0646EE
:107930000F4601E0914F002607F10043149615937E
:10794000DDE9148912E08D4B304639460022FEF7FE
:1079500029FE079B06460F4623B901F100430E900E
:107960000F9301E0CDE90E67DDE90E892BF00043AE
:107970001B0D1B050693069A814B9A422BD1DDE91C
:107980000823ABF1547B4BEC10ABCDE90A2301F09B
:107990009BFA404653EC102B4946FEF703FE524635
:1079A0005B46FEF74DFC21F000431B0D754A1B059D
:1079B000934282460CD9744B0B9A9A4203D10A9B8C
:1079C00001333FF42CADDFF8C0B14FF0FF3A72E065
:1079D00001F1547B38E0039B33B3069BB3F1D46FC2
:1079E00022D85DA3D3E9002330463946FFF756F885
:1079F000A8B139463046FFF7ADF8002808BF01208E
:107A0000FEF75AFD079B06460F4623B901F10043D6
:107A10001090119301E0CDE91067DDE91089069A15
:107A200009F1D663C2EB03099DED080B01F04CFA96
:107A3000404653EC102B4946FEF7B4FDDDE9082320
:107A4000FEF7FEFB82468B46039BA3BB2BF0004355
:107A50001B0D069A1B059A42D8462CD13946304652
:107A6000FFF750F8FEF738FD0B4602463946304620
:107A7000FEF7E4FB079B06460F462BB9BAF1000F51
:107A800002D1CBF3130383B135A3D3E900233046EE
:107A90003946FEF7F9FF002831D133A3D3E900239B
:107AA00030463946FFF70EF804E031A3D3E900234E
:107AB000FEF7EAFF18BB1899029800F074FF0499CA
:107AC000029800F070FF2946029800F06CFF2146F2
:107AD000029800F068FF6DE5039B83B12B4B0B937D
:107AE00000230A9350465946DDE90A23FEF75AFD62
:107AF00082468B4619B910B9029A2223136018994D
:107B0000029800F050FF0499029800F04CFF2946BB
:107B1000029800F048FF0599029800F044FF2146C2
:107B2000029800F040FF139B13B1139A179B136048
:107B30000C9B1BB152460BF1004307E052465B46DB
:107B400004E000252A460121FFF741BB43EC102B3E
:107B50001DB0BDE8F08F00BF0000C0FFFFFFDF4198
:107B60009535A094FFFFDF3F35E5AF350000E03FDE
:107B70009535A094FFFFCF3F0000F03F0000E03FAD
:107B80000000E07FFFFF9F7CFFFFEF7F0000503988
:107B900038B50E4B0A4601461868FFF7F9F955EC5F
:107BA000104B10EE102A2B4610EE100A2946FEF755
:107BB00093FF20B10020BDE8384001F0BDBA204657
:107BC0002946FEF7E7FF00EE100A38BDACE20320BD
:107BD0002DE9F04780463C48D0F800900E463546E7
:107BE00015F8014B09EB0400407800F0080000F0A4
:107BF000FF0708B12E46F2E72D2C03D1B51C74788F
:107C0000012703E02B2C04BF7478B51C13B1102B93
:107C10000AD153E0302C4FD1287800F0DF005828EB
:107C200045D16C78102302354FF0FF3C0026BCFB99
:107C3000F3FC03FB0CFA6FEA0A0A304609EB040E68
:107C40009EF801E01EF0040F01D0303C0BE01EF066
:107C5000030E1AD0BEF1010F0CBF4FF0370E4FF0DC
:107C6000570ECEEB0404A3420FDD002E08DB604567
:107C700006D801D1544503DC03FB0040012601E096
:107C80004FF0FF3615F8014BD8E7002E07DA222314
:107C9000C8F800304FF0FF302AB9BDE8F08707B1CF
:107CA000404272B106B1691E1160BDE8F087302410
:107CB000002BB9D10823B7E70A23B5E7302CABD0A6
:107CC000B2E7BDE8F08700BF48E2032013460A464A
:107CD000014602480068FFF77BBF00BFACE203200B
:107CE0002DE9F74F044600F08DFD40F2B1739C4240
:107CF00040F396806FF4F663E318A4F2B2729B101F
:107D000040F26D1505FB0235A4F26D726FF063034E
:107D100092FBF3F36FF4C8622B44A5184FF4C872BA
:107D200095FBF2F51D44642394FBF2F794FBF3F604
:107D300002FB174703FB164600F13803B7FA87FE2C
:107D4000019304F0030344604FEA5E1E0146009372
:107D50004FF0070C0B7A4A2B0ED14B69009AEC18A6
:107D600002B906B927B93B2BD4BF0023012300E099
:107D700000232344013B3FE0442B02D14B692B44B9
:107D80003AE0009B2BB9002E0CBFF0464FF00108E3
:107D900000E0F046244BCC68302202FB0838A8F102
:107DA000040AA9460123A34204DA5AF804BF0133A6
:107DB000D944F8E709F1040393FBFCFBCBEBCB0AB6
:107DC000012CCAEB030A4B69B8BF012404F18044BB
:107DD000B3EB0A0A0B6904F1FF3403F1FF3348BF28
:107DE0000AF1070AC3EBC30358F824405344A342E3
:107DF00001DB073BFBE74B448C690C4A02FB034366
:107E00000C6A234441F81C3F019B9942A2D1C369EB
:107E1000826B9342ACBF002301230360012000E08A
:107E2000002003B0BDE8F08F14960D0080510100D2
:107E300070477047014B186800F002B8ACE20320AD
:107E40002DE9F04F8DB0074600F0DCFCB049B14E93
:107E50000446384600F0CEFC054660B9AE4BAF4A4A
:107E60001860AF4B1860AF4B30681A605A60FCF76F
:107E700023FE356048E1316879B93068FCF71CFEB3
:107E80002846FFF74AF8411C3846FCF73DFE3060B3
:107E900048B12946FFF71EF805E0FFF711F8002862
:107EA00000F03281E9E72B789F4AA0493A2B08BFBE
:107EB00001350AAE33462846FCF70EFE002840F393
:107EC00023810A9BEF18EB5C2D2B03D101374FF078
:107ED000FF3503E02B2B08BF013701250DF1200AE8
:107EE0000DF11E0B4FF000080396CDF808A0019687
:107EF000CDF800B0334607AA8D49ADF81E8038464C
:107F0000ADF82080FCF7E8FD404540F3FD80BDF86A
:107F10001E20BDF82030DFF824923C2101FB023303
:107F2000BDF81C204FF4616101FB02335D43256203
:107F30007C4D7D4B2B600A9B7C491F444A4633464F
:107F40003846FCF7C9FD404508DC2B686B60724B76
:107F5000226A1A60724BC3F80080D5E00A9BC5F80C
:107F60000490FD18FB5C2D2B03D101354FF0FF373A
:107F700003E02B2B08BF013501270023ADF81C308F
:107F8000ADF81E30ADF820300A930396CDF808A066
:107F90000196CDF800B0334607AA65492846FCF79C
:107FA0009BFD002804DC236AA3F56163E3630EE014
:107FB000BDF81E20BDF820303C2101FB0233BDF886
:107FC0001C204FF4616101FB02335F43E7630A9BAE
:107FD00027461D444FF000092B782C2B08BF013594
:107FE00095F80080B8F14D0F26D10DF126030293CC
:107FF00009AB00930396019633460DF122024D49D9
:108000002846FCF769FD03287ED1BDF822104B1EDF
:108010000B2B79D8BDF82420531E042B74D8BDF83F
:108020002630062B70D887F80880F9603A617B61AA
:108030000A9B05EB03082AE0B8F14A0F06BF013599
:10804000434644230A220BA928460593FFF73EFE28
:10805000DDF82C80ADF826004545059B14D14D2355
:10806000B9F1000F07D123720323E36002232361D8
:10807000C4F814900BE084F824300B23A36201238E
:10808000E3620023236302E080B23B727861022343
:10809000ADF81C300023ADF81E30ADF820300A9347
:1080A00098F800302F2B0BD10396CDF808A001963D
:1080B000CDF800B0334607AA1F494046FCF70CFD37
:1080C000BDF81E20BDF820303C2101FB0233BDF875
:1080D0001C204FF4616101FB0233BB610A9D09F171
:1080E0000109B9F1020F454407F11C077FF474AF91
:1080F0006068FFF7F5FD084B226A1A60E36B9B1A74
:10810000074A18BF012313600DB0BDE8F08F00BF10
:10811000D0960D00E0E70320E8E70320D3960D009A
:10812000E4E70320E8E20320D3E70320D7960D001D
:10813000FA960D00E6960D00F9960D00C8E70320AB
:10814000F0B506694B11B34200F1140527DA11F0BE
:108150001F0105EB860605EB830201D1294616E0D7
:10816000141D55F82320C1F1200ECA402B46B442FD
:1081700009D2276807FA0EF73A4343F8042B54F85C
:10818000042BCA40F3E71A6052B1043308E0B2424C
:108190000B4605D252F8043B41F8043BF7E72B4667
:1081A0005B1B9B10036103B94361F0BDA0F1300379
:1081B000092B01D820380AE0A0F16103052B01D872
:1081C000473804E0A0F14103052B02D82738C0B29C
:1081D0007047002070472DE9F04F8BB08A469046DB
:1081E00006930290FEF72CFE036803931846FEF7F1
:1081F00094FE039B019003444FF0000B13F8013CE5
:108200000793DAF8003002331F4613F8010B3028C9
:1082100002D10BF1010BF7E7FFF7C8FF0446E0B905
:10822000019A03993846FEF780FE002834D1019B5D
:10823000F85CFE18FFF7BAFF80B333461878302891
:108240001F4603F10103F9D0FFF7B0FFB0FA80F544
:108250006D0934464FF0010B01E000252C463A46EB
:10826000164601323078FFF7A1FF0028F8D1019AB5
:1082700003993046FEF759FE50B954B9019BF418E2
:108280002246164601323078FFF790FF0028F8D1D9
:1082900034B1A41BA40003E03E4600E004460125DF
:1082A0003378502B01D0702B2AD173782B2B08D028
:1082B0002D2B03D0711C4FF0000905E04FF0010990
:1082C00001E04FF00009B11C0878FFF76FFF431E73
:1082D000DBB2182B14D8A0F1100211F8010FFFF730
:1082E00065FF431EDBB2182B04D80A2303FB0202EE
:1082F000103AF2E7B9F1000F00D05242144400E006
:108300003146CAF800102DB1BBF1000F14BF002098
:1083100006207CE1F31B013B2946072B02DD0131DE
:108320005B10FAE7029800F009FB019B00F1140AC8
:108330004FF00009C3F101030546CDF810A0CB466C
:108340000893B7422FD2731E0593079A16F8013C83
:1083500093420BD0BBF1200F16D1049BC3F80090C1
:1083600004334FF000090493CB460DE0059B089AB7
:1083700013449F42EED81846019A03990993FEF7D9
:10838000D4FD099B68B1E5E716F8010CFFF70EFF75
:1083900000F00F0000FA0BF0059B49EA00090BF111
:1083A000040B1E46CDE7049840F8049BCAEB00007E
:1083B000801028614701484600F085FBD8F800602E
:1083C000381AB04226DD871B3946284600F083FE66
:1083D000C8B17B1E591103F01F024FF001095AF872
:1083E000211009FA02F20A420ED04B4502DC4FF08E
:1083F000020909E0B91E284600F06DFE0028F6D0FB
:108400004FF0030900E0814639462846FFF798FE01
:108410003C440CE009DA371A29463A46029800F043
:1084200087FCE41B054600F1140A4FF00009D8F858
:1084300008309C4208DD0298294600F0B4FA149AEC
:1084400000231360A320E2E0D8F80400844253DA4A
:10845000041BA6422EDCD8F80C30022B1AD0032BBA
:108460001CD0012B1DD1A6421BD1012E0BDC069A7C
:10847000D8F80430136001232B61CAF80030149B34
:1084800062201D60C3E0711E284600F024FE002813
:10849000EDD106E0159B002BE9D002E0159B002BE7
:1084A000E5D10298294600F07EFA149A0023136061
:1084B0005020ACE0671EB9F1000F06D13FB139463C
:1084C000284600F008FE814601E04FF001097A11CC
:1084D000012307F01F0703FA07F75AF82230214655
:1084E0001F42284618BF49F00209361BFFF728FE35
:1084F0000227D8F8044000E00127B9F1000F00F08E
:108500008180D8F80C30022B0ED0032B10D0012B19
:1085100076D119F0020F73D0DAF8000049EA0009A9
:1085200019F0010F07D16BE0159BC3F101031593FF
:10853000159B002B64D0D5F810A005F114034FEA69
:108540008A0903EB090100201A68B2F1FF3F02D04B
:1085500001321A6020E043F8040B9942F4D8AB686A
:108560009A4512DB69680298013100F0E7F92A693F
:10857000023205F10C01834692000C30FEF764FCD8
:108580002946029800F00FFA5D462B695A1C05EB4C
:1085900083032A6101225A61022F05F1140211D1CD
:1085A000D8F80030013B9E4227D17111012306F01B
:1085B0001F0603FA06F652F821301E420CBF0227AE
:1085C00001271AE02B699A450ADA01212846FFF7AC
:1085D000B7FDD8F8083001349C423FF72CAF0BE0D0
:1085E00016F01F0608D09144C6F1200659F8040C75
:1085F00000F069FAB042E8DB012747F0200701E00C
:1086000047F01007149B1D60069B38461C600BB09A
:10861000BDE8F08FC2F10802920070B5C2F12006E9
:108620004368056803FA06F42C43D340046040F81D
:10863000043F8842F4D370BD30B5036811F8014B94
:1086400001334CB11A78A2F14105192D98BF20329F
:10865000A242F3D0002030BD0360012030BD2DE9DF
:10866000F04F0B68D0F800B05E1102EB860613F0F5
:108670001F0385B018BF0436351F174600228246F7
:10868000019346F8042CA8462C46009291461BF80C
:10869000011F00293CD0084603920291FFF786FD96
:1086A000039A00BB0299202916D8009B9945EEDD5C
:1086B000444505D2072A03DC41462046FFF7AAFFBE
:1086C000BC4223D90023A4F1040844F8043CCDF8AB
:1086D000009044461A46DAE7292948D10BF10103F4
:1086E000CAF8003014E00132082A09F1010906DD58
:1086F000BC42CCD9002344F8043C0122043C21684C
:1087000000F00F0040EA01102060C0E70822BEE739
:10871000B9F1000F2BD0444505D2072A03DC4146AE
:108720002046FFF777FFBC420CD93B4654F8042B98
:1087300043F8042BA542F9D2002243F8042B9D42B2
:10874000FBD20BE0019B4BB1C3F120024FF0FF3392
:10875000D34056F8042C134046F8043C2B6843B928
:10876000BD4202D101232B6003E0043DF6E7042063
:1087700000E0052005B0BDE8F08F00002DE9F84FBE
:1087800007468B46904600F0DDFC194B1D689A4663
:108790003DB15C46234613F8012B42B13D2A1C46ED
:1087A000F8D1384600F0CFFC0020BDE8F88FCBEBC5
:1087B0000404A94659F8040B0028F2D02246594671
:1087C000FEF7B3FB88B959F8043C1E191B5D3D2B1D
:1087D0000BD1DAF80030ED1AAD103846C8F8005069
:1087E00000F0B1FC701CBDE8F88F4D46E1E700BF1A
:1087F00030E3032007B501AAFFF7C0FF03B05DF81F
:1088000004FB000000487047F0E203200268474B79
:10881000F0B592FBF3F403FB1422002ABCBF02F56F
:10882000A83202F5C0724FF4616004F52F2492FB68
:10883000F0F300FB13224FF03C00ACBF04F66C24B5
:1088400004F66B248B6092FBF0F300FB13224B6069
:108850000A600723E21C92FBF3F3C3EBC303D31AB2
:108860008B61334B334D94FBF5F503FB054448F620
:10887000AC62B4FBF2F2224440F2B457B4FBF7F31B
:10888000D21A2D48B4FBF0F048F69466131AB3FBE5
:10889000F6F6344440F26D12B3FBF2F0B3FBF7F39B
:1088A000E31A02FB1033992403EB83020232B2FB7A
:1088B000F4F20A2A04FB02F404F102064FF0050464
:1088C000B6FBF4F434BF02266FF0090616444FF4E9
:1088D000C87202FB05055F1C012E98BF0135B3F578
:1088E000997FA7EB040702D3A3F5997214E08207DE
:1088F00005D16424B0FBF4F204FB12024AB94FF430
:10890000C872B0FBF2F402FB1400B0FA80F2520914
:1089100000E001223B331A44A5F26C750023CA61C2
:108920004D610E61CF600B620846F0BD80510100C1
:108930004FC5FDFFB13A0200B03A020070B5456A7A
:1089400004460E463DB91020FCF7AEF86062456063
:1089500085600560C560656AEB6843B1636ADB6882
:1089600053F8260078B1026843F8262017E0212248
:108970000421204600F0D1FB636AE860DB68002B2D
:10898000ECD1002070BD012101FA06F56A1D9200AC
:10899000204600F0C2FB0028F3D04660856000232B
:1089A0000361C36070BD70B5446A06460D463CB9AC
:1089B0001020FCF779F87062446084600460C46041
:1089C0003DB1736A6A68DB6853F82210296043F886
:1089D000225070BD2DE9F0410D691F4606460C4638
:1089E00001F1140E0023DEF8000081B202FB0171D8
:1089F0000F0C000C02FB007089B2013301EB004147
:108A00009D424FEA10474EF8041BECDCD7B1A36837
:108A10009D4212DB616830460131FFF78FFF22690A
:108A2000023204F10C01804692000C30FEF70CFA81
:108A300021463046FFF7B7FF444604EB8503013576
:108A40005F6125612046BDE8F0812DE9F8430C46C1
:108A500015461F4609220833064693FBF2F3002110
:108A600001229A4202DA52000131FAE73046FFF75A
:108A700065FF089B4361092D4FF00103036111DD80
:108A800004F10908C1462C4419F8013B0146303B6A
:108A90000A223046FFF79EFFA145F5D108EB0504F9
:108AA000083C01E00A3409252D1B63199F4208DDAB
:108AB00014F8013B0146303B0A223046FFF78AFF9B
:108AC000F3E7BDE8F883030C1B0413B9000410237B
:108AD00000E0002310F07F4F04BF0002083310F0C5
:108AE000704F04BF0001043310F0404F04BF8000FA
:108AF0000233002803DB420003D5581C7047184698
:108B0000704720207047036813F007020BD0D90785
:108B100022D49A074BBF5B089B08036003604CBFDD
:108B200001200220704799B209B91B0C102213F0E2
:108B3000FF0F04BF1B0A0832190704BF1B090432C8
:108B4000990704BF9B080232D90702D45B0805D0FD
:108B500001320360104670470020704720207047A4
:108B600010B50C460121FFF7E9FE012244610261C4
:108B700010BD2DE9F74F14460A6923699A42B8BF20
:108B80000B468846BCBFA0461C46D8F81070D4F8E7
:108B90001090D8F80830D8F8041007EB09069E4268
:108BA000C8BF0131FFF7CAFE00F1140505EB860CC2
:108BB0002B460022634502D243F8042BFAE704F166
:108BC000140208F1140102EB890301EB87070093FB
:108BD000009B0192934257D9B2F800B0BBF1000F4D
:108BE00023D08946AE464FF0000859F8044BBEF832
:108BF00000A0A3B20BFB03A34FEA144ADEF8004027
:108C000043444FEA14480BFB0A8404EB1344F24636
:108C10009BB243EA04434F454FEA14484AF8043BE9
:108C200001D9D646E1E7CEF80480019BB3F802A053
:108C30000432BAF1000F21D02B682C4689464FF040
:108C40000008B9F800E0B4F802B00AFB0EBEF04428
:108C5000A3469BB243EA08434BF8043B59F8043B54
:108C6000B4F804E01B0C0AFB03E303EB18434F4585
:108C70004FEA134801D95C46E3E763600435A7E790
:108C80005CF8043D13B9013E002EF9DC066103B027
:108C9000BDE8F08F2DE9F843154612F003020646B1
:108CA0000F4607D0013A214C002354F82220FFF749
:108CB00091FE0746AD1036D0746A3CB91020FBF720
:108CC000F3FE7062446084600460C460D6F824805F
:108CD000D8F808404CB940F271213046FFF740FF08
:108CE0000023C8F80800044603604FF00008EB07B3
:108CF0000AD5394622463046FFF73BFF39468146C2
:108D00003046FFF750FE4F466D100CD0206808B17A
:108D10000446ECE7224621463046FFF72AFF206052
:108D2000C0F80080F4E73846BDE8F88300980D00ED
:108D30002DE9F0470C464FEA621A26694968A36894
:108D4000564407469146751CAB4202DA01315B007E
:108D5000FAE73846FFF7F2FD0023804600F11401E0
:108D60001A46534503DA41F823200133F9E72AEA8A
:108D7000EA73206901EB830319F01F0904F1140160
:108D800001EB800E14D0C9F1200C0022086800FA13
:108D900009F002439A4643F8042B51F8042B8E4500
:108DA00022FA0CF2F2D8CAF8042042B1B51C06E04F
:108DB000043B51F8042B43F8042F8E45F9D8013DAC
:108DC0003846C8F810502146FFF7EDFD4046BDE893
:108DD000F08703690A699B1A10B511D1920014300B
:108DE000143183180A4453F8044D52F8041D8C4280
:108DF00002D007D3012010BD9842F4D3002010BD4B
:108E0000184610BD4FF0FF3010BD2DE9F8430C4659
:108E10000746114620461546FFF7DBFF061E08D120
:108E200031463846FFF78AFD012303614661BDE8FC
:108E3000F883BCBF23462C4638466168BABF1D463E
:108E400001260026FFF77AFD2B69C660266905F129
:108E50001409143404EB860709EB830800F11405A8
:108E60004FF0000C54F8043B59F8042B1CFA83F122
:108E70001FFA82FE120CCEEB0101C2EB134303EB8F
:108E8000214389B24FEA234CC84541EA0343A64631
:108E900045F8043BE6D8BE450ED25EF8041B1CFA2A
:108EA00081F2131403EB114392B242EA03424FEAF8
:108EB000234C45F8042BEEE755F8043D0BB9013E71
:108EC000FAE70661BDE8F883124B10EE902A1A40CB
:108ED000A2F15073002B02DD0020194617E05B421F
:108EE0001B15132B4FF000004FF0000104DC4FF472
:108EF000002242FA03F10AE0143B1E2B4FF001025C
:108F0000DABFC3F11F0302FA03F31346184641EC1C
:108F1000100B70470000F07FF8B5056900F11406EA
:108F200006EB85052F1F55F8044C2046FFF7CBFDB7
:108F3000C0F120030A280B6014DCC0F10B0E24FAE8
:108F40000EF1BE4241F07F5334BF55F8081C00219A
:108F5000153004FA00F021FA0EF143F4401340EA10
:108F6000010223E0BE423ABFA5F1080755F8081CEC
:108F700000210B3815D08440C0F1200544F07F5407
:108F800044F44014B74221FA05FE44EA0E038CBFB4
:108F900057F8044C002401FA00F0EC4040EA0402C7
:108FA00004E044F07F5343F440130A4643EC102B93
:108FB000F8BD2DE9F7430E46012159EC108B1546FB
:108FC000FFF7BCFCC9F30A540746C9F313030CB1FD
:108FD00043F480130193B8F1000F19D002A840F8B0
:108FE000088DFFF790FD009B48B1019AC0F1200168
:108FF00002FA01F10B43C2407B61019200E07B6108
:10900000019BBB61002B14BF02210121396107E0E4
:1090100001A8FFF778FD019B7B61012139612030B8
:1090200034B1A4F2334404443460C0F1350009E0A3
:1090300007EB8103A0F2324030601869FFF743FD6F
:10904000C0EB41102860384603B0BDE8F0832DE93D
:10905000F743884669468146FFF75EFF01A940460F
:1090600055EC104BFFF758FFD9F81030D8F8102006
:109070009A1A9DE80A00C91A57EC106B01EB4213CB
:10908000002BCCBF05EB0355A7EB035732463B46FD
:1090900020462946FDF7B0FB41EC100B03B0BDE8BC
:1090A000F083013910B549111469013102F114033B
:1090B00000EB810103EB8404A342024604D253F87F
:1090C000042B40F8042BF7E700238A4202D242F82F
:1090D000043BFAE710BD00F1140200694B119842FD
:1090E00010B50CDB0CDD11F01F0109D052F8234044
:1090F00024FA01F000FA01F18C420CD100E00346A1
:1091000002EB8303934204D953F8041D0029F9D0DC
:1091100001E0002010BD012010BD38B502FB01F4B4
:109120002146FBF7F1FC054618B122460021FDF768
:1091300096FE284638BD00009FED010A704700BF2B
:109140000000C07F7047704721400D005D400D005A
:1091500089400D008D400D000000000025342E31A7
:1091600066206D41680025332E3166202525005389
:1091700065742D4361706163697479005365742D62
:109180004368617267650052657365742D54657339
:1091900074004C54433431353020436F756C6F6D1F
:1091A0006220436F756E74657200537461727475DA
:1091B00070005374617475733A2025342E30662024
:1091C0006D41682C2025332E31662525206368618A
:1091D0007267652C2025342E3366206D4120617422
:1091E0002074696D652025693A25693A25693A2513
:1091F00069207365636F6E64730053746174757373
:109200000000000000000000000000008D4B0D0079
:10921000934B0D00E94B0D00A14B0D008F4B0D0042
:109220000000000000000000FF510D00F5510D008E
:10923000EB510D00E1510D00D5510D00C9510D004C
:10924000BD510D00B5510D00AB510D00A1510D00E8
:10925000CD550D0000000000000000001D520D0063
:1092600067520D003F520D001F520D0047520D0076
:109270004F520D0057520D005F520D0000000000CC
:109280000000000005530D00F5520D00F7520D00CF
:10929000626175640053657269616C00536572693F
:1092A000616C31007479706500706172616D00638A
:1092B0006D6400696400686E64007374726D0066AA
:1092C000696C74006C766C0061646448616E646CF7
:1092D00065720072656D6F766548616E646C65726B
:1092E00000656E756D48616E646C657273004A53FB
:1092F0004F4E53747265616D4C6F6748616E646C5C
:1093000065720061707000253031307520005D207D
:10931000002564002C200028293A2000205B0063EF
:109320006F6465203D200025690064657461696C87
:1093300073203D20000D0A006C6E00666E00636FA6
:1093400064650064657461696C006E6F6E650074BD
:109350007261636500696E666F007761726E0065A9
:1093600072726F720070616E696300616C6C0000F4
:10937000000000000000000047540D003D540D00A7
:1093800033540D0029540D001D540D0011540D00CF
:1093900005540D00FD530D00F3530D00E9530D006E
:1093A000CD550D00000000000000000065550D00C7
:1093B0006F550D0079550D0083550D008D550D002D
:1093C00099550D00A5550D00B1550D00B9550D006D
:1093D000C3550D00CD550D00000000000000000039
:1093E00069570D006B570D00252B3033643A25303B
:1093F00032750025592D256D2D25645425483A25B3
:109400004D3A2553257A0061736374696D650000D8
:1094100000000000000000001D5A0D006D5A0D00F4
:109420007B5A0D00AD560D00315A0D00535A0D00F8
:109430003F5A0D00675A0D001F5A0D00235A0D00A8
:109440000000000000000000255B0D00755B0D00B2
:10945000835B0D00AD560D00615B0D00275B0D00B9
:109460003D5B0D006F5B0D00535B0D00215B0D003C
:109470000000000000000000875C0D007D5C0D0016
:10948000735C0D00295C0D00675C0D005B5C0D00DA
:109490004F5C0D00475C0D003D5C0D00335C0D0022
:1094A000CD550D0000002020202020202020202845
:1094B000282828282020202020202020202020208C
:1094C00020202020202088101010101010101010C4
:1094D0001010101010100404040404040404040404
:1094E0001010101010101041414141414101010183
:1094F000010101010101010101010101010101015C
:109500000110101010101042424242424202020268
:10951000020202020202020202020202020202022B
:1095200002101010102000000000000000000000D9
:10953000000000000000000000000000000000002B
:10954000000000000000000000000000000000001B
:10955000000000000000000000000000000000000B
:1095600000000000000000000000000000000000FB
:1095700000000000000000000000000000000000EB
:1095800000000000000000000000000000000000DB
:1095900000000000000000000000000000000000CB
:1095A00000000000000000000000000000000000BB
:1095B00000000000000000000000000000000000AB
:1095C000000000000000000000000000000000009B
:1095D000000000000000000000000000000000008B
:1095E000000000000000000000000000000000007B
:1095F000000000000000000000000000000000006B
:1096000000000000000000004300504F5349580084
:109610002E0000001F0000001C0000001F000000C2
:109620001E0000001F0000001E0000001F000000C0
:109630001F0000001E0000001F0000001E000000B0
:109640001F0000001F0000001D0000001F000000A0
:109650001E0000001F0000001E0000001F00000090
:109660001F0000001E0000001F0000001E00000080
:109670001F00000035000000CEFBFFFFCB03000001
:10968000010000000000000034000000CEFBFFFFDE
:10969000CB03000001000000000000006E660069BE
:1096A0006E69747900616E00BC89D897B2D29C3C17
:1096B00033A7A8D523F649393DA7F444FD0FA532B9
:1096C0009D978CCF08BA5B25436FAC642806681160
:1096D000545A00474D54002531305B5E302D392CF3
:1096E0002B2D5D256E004D256875256E2E25687520
:1096F000256E2E256875256E002F256875256E3A16
:10970000256875256E3A256875256E0000000000F5
:10971000000000000000F03F0000000000002440B6
:1097200000000000000059400000000000408F4091
:10973000000000000088C34000000000006AF840FC
:109740000000000080842E4100000000D012634120
:109750000000000084D797410000000065CDCD4196
:10976000000000205FA00242000000E87648374277
:10977000000000A2941A6D42000040E59C30A24215
:109780000000901EC4BCD64200003426F56B0C438A
:109790000080E03779C3414300A0D8855734764331
:1097A00000C84E676DC1AB43003D9160E458E14392
:1097B000408CB5781DAF154450EFE2D6E41A4B4407
:1097C00092D54D06CFF08044F64AE1C7022DB5444C
:1097D000B49DD9794378EA440080E03779C34143A6
:1097E000176E05B5B5B89346F5F93FE9034F384D07
:1097F000321D30F94877825A3CBF737FDD4F1575B3
:1098000005000000190000007D00000021460D0049
:10981000654B0D0009520D00D9530D0015550D0073
:1098200099560D004D570D00C5580D00095A0D00F1
:10983000915C0D00A55F0D0069600D00ED600D00ED
:1098400071610D0000000000000000000000000039
:049850000000000014
:109854004E41000000000000000000000000000075
:109864004E41000000000000000000000000000065
:109874001BC62E3E07940D00A5940D0000000000A9
:10988400A8950D00C8950D00E8950D000000000096
:1098940000000000000000000000000008960D0019
:1098A40000000000000000000000000000000000B4
:1098B40000000000000000000000000000000000A4
:1098C4000000000000000000000000000000000094
:1098D4000000000000000000000000004CE2032033
:1098E40010960D0037930D0037930D0037930D003C
:1098F40037930D0037930D0037930D0037930D0008
:1099040037930D0037930D00FFFFFFFFFFFFFFFFAD
:10991400FFFFFFFFFFFF0000D3960D00D3960D005D
:1099240001000000000000004A00000000000000E8
:109934000000000000000000000000000000000023
:10994400000000004A0000000000000000000000C9
:109954000000000000000000000000000000000003
:04996400ECE7032009
:10996800FFFFFFFF00000102030405060708090ABC
:109978000B0C0D0E0F101112131415161718191AB7
:089988001B1C1D1E1F202800FE
:0499900078563412BF
:04000003D0004020C9
:00000001FF
